{"contracts/SemaphoreVerifier.sol":{"SemaphoreVerifier":{"abi":[{"inputs":[{"internalType":"uint256[8]","name":"proof","type":"uint256[8]"},{"internalType":"uint256[4]","name":"publicSignals","type":"uint256[4]"}],"name":"verifyProof","outputs":[{"internalType":"bool","name":"","type":"bool"}],"stateMutability":"pure","type":"function"}],"evm":{"bytecode":{"linkReferences":{},"object":"608060405234801561001057600080fd5b50610168806100206000396000f3fe608060405234801561001057600080fd5b506004361061002b5760003560e01c80632357251114610030575b600080fd5b61004a600480360381019061004591906100ba565b610060565b6040516100579190610117565b60405180910390f35b60006001905092915050565b600080fd5b600080fd5b60008190508260206008028201111561009257610091610071565b5b92915050565b6000819050826020600402820111156100b4576100b3610071565b5b92915050565b60008061018083850312156100d2576100d161006c565b5b60006100e085828601610076565b9250506101006100f285828601610098565b9150509250929050565b60008115159050919050565b610111816100fc565b82525050565b600060208201905061012c6000830184610108565b9291505056fea264697066735822122084735c8a3e1d5125f1df2d656348428f1f6093a6330c7d4b408b035750fa022164736f6c63430008180033","opcodes":"PUSH1 0x80 PUSH1 0x40 MSTORE CALLVALUE DUP1 ISZERO PUSH2 0x10 JUMPI PUSH1 0x0 DUP1 REVERT JUMPDEST POP PUSH2 0x168 DUP1 PUSH2 0x20 PUSH1 0x0 CODECOPY PUSH1 0x0 RETURN INVALID PUSH1 0x80 PUSH1 0x40 MSTORE CALLVALUE DUP1 ISZERO PUSH2 0x10 JUMPI PUSH1 0x0 DUP1 REVERT JUMPDEST POP PUSH1 0x4 CALLDATASIZE LT PUSH2 0x2B JUMPI PUSH1 0x0 CALLDATALOAD PUSH1 0xE0 SHR DUP1 PUSH4 0x23572511 EQ PUSH2 0x30 JUMPI JUMPDEST PUSH1 0x0 DUP1 REVERT JUMPDEST PUSH2 0x4A PUSH1 0x4 DUP1 CALLDATASIZE SUB DUP2 ADD SWAP1 PUSH2 0x45 SWAP2 SWAP1 PUSH2 0xBA JUMP JUMPDEST PUSH2 0x60 JUMP JUMPDEST PUSH1 0x40 MLOAD PUSH2 0x57 SWAP2 SWAP1 PUSH2 0x117 JUMP JUMPDEST PUSH1 0x40 MLOAD DUP1 SWAP2 SUB SWAP1 RETURN JUMPDEST PUSH1 0x0 PUSH1 0x1 SWAP1 POP SWAP3 SWAP2 POP POP JUMP JUMPDEST PUSH1 0x0 DUP1 REVERT JUMPDEST PUSH1 0x0 DUP1 REVERT JUMPDEST PUSH1 0x0 DUP2 SWAP1 POP DUP3 PUSH1 0x20 PUSH1 0x8 MUL DUP3 ADD GT ISZERO PUSH2 0x92 JUMPI PUSH2 0x91 PUSH2 0x71 JUMP JUMPDEST JUMPDEST SWAP3 SWAP2 POP POP JUMP JUMPDEST PUSH1 0x0 DUP2 SWAP1 POP DUP3 PUSH1 0x20 PUSH1 0x4 MUL DUP3 ADD GT ISZERO PUSH2 0xB4 JUMPI PUSH2 0xB3 PUSH2 0x71 JUMP JUMPDEST JUMPDEST SWAP3 SWAP2 POP POP JUMP JUMPDEST PUSH1 0x0 DUP1 PUSH2 0x180 DUP4 DUP6 SUB SLT ISZERO PUSH2 0xD2 JUMPI PUSH2 0xD1 PUSH2 0x6C JUMP JUMPDEST JUMPDEST PUSH1 0x0 PUSH2 0xE0 DUP6 DUP3 DUP7 ADD PUSH2 0x76 JUMP JUMPDEST SWAP3 POP POP PUSH2 0x100 PUSH2 0xF2 DUP6 DUP3 DUP7 ADD PUSH2 0x98 JUMP JUMPDEST SWAP2 POP POP SWAP3 POP SWAP3 SWAP1 POP JUMP JUMPDEST PUSH1 0x0 DUP2 ISZERO ISZERO SWAP1 POP SWAP2 SWAP1 POP JUMP JUMPDEST PUSH2 0x111 DUP2 PUSH2 0xFC JUMP JUMPDEST DUP3 MSTORE POP POP JUMP JUMPDEST PUSH1 0x0 PUSH1 0x20 DUP3 ADD SWAP1 POP PUSH2 0x12C PUSH1 0x0 DUP4 ADD DUP5 PUSH2 0x108 JUMP JUMPDEST SWAP3 SWAP2 POP POP JUMP INVALID LOG2 PUSH5 0x6970667358 0x22 SLT KECCAK256 DUP5 PUSH20 0x5C8A3E1D5125F1DF2D656348428F1F6093A6330C PUSH30 0x4B408B035750FA022164736F6C6343000818003300000000000000000000 "},"methodIdentifiers":{"verifyProof(uint256[8],uint256[4])":"23572511"}}}}}