{"contracts/PrivacyVotingDAOv2.sol":{"PrivacyVotingDAOv2":{"abi":[{"inputs":[{"internalType":"contract SemaphoreVerifier","name":"_verifier","type":"address"},{"internalType":"uint256","name":"_root","type":"uint256"},{"internalType":"contract IERC20Votes","name":"_govToken","type":"address"}],"stateMutability":"nonpayable","type":"constructor"},{"inputs":[{"internalType":"address","name":"owner","type":"address"}],"name":"OwnableInvalidOwner","type":"error"},{"inputs":[{"internalType":"address","name":"account","type":"address"}],"name":"OwnableUnauthorizedAccount","type":"error"},{"anonymous":false,"inputs":[{"indexed":false,"internalType":"uint256","name":"newRoot","type":"uint256"}],"name":"MemberRootUpdated","type":"event"},{"anonymous":false,"inputs":[{"indexed":true,"internalType":"address","name":"previousOwner","type":"address"},{"indexed":true,"internalType":"address","name":"newOwner","type":"address"}],"name":"OwnershipTransferred","type":"event"},{"anonymous":false,"inputs":[{"indexed":true,"internalType":"uint256","name":"id","type":"uint256"},{"indexed":false,"internalType":"uint256","name":"merkleRoot","type":"uint256"},{"indexed":false,"internalType":"uint256","name":"nullifierHash","type":"uint256"},{"indexed":false,"internalType":"uint256","name":"signalHash","type":"uint256"}],"name":"ProofVerified","type":"event"},{"anonymous":false,"inputs":[{"indexed":true,"internalType":"uint256","name":"id","type":"uint256"},{"indexed":false,"internalType":"uint8","name":"winner","type":"uint8"}],"name":"ProposalClosed","type":"event"},{"anonymous":false,"inputs":[{"indexed":true,"internalType":"uint256","name":"id","type":"uint256"},{"indexed":false,"internalType":"enum CountingMode","name":"mode","type":"uint8"},{"indexed":false,"internalType":"string","name":"title","type":"string"},{"indexed":false,"internalType":"uint64","name":"closes","type":"uint64"}],"name":"ProposalCreated","type":"event"},{"anonymous":false,"inputs":[{"indexed":true,"internalType":"uint256","name":"id","type":"uint256"},{"indexed":false,"internalType":"uint8","name":"option","type":"uint8"},{"indexed":false,"internalType":"uint256","name":"nullifierHash","type":"uint256"},{"indexed":false,"internalType":"uint256","name":"weight","type":"uint256"}],"name":"VoteCast","type":"event"},{"inputs":[{"internalType":"uint256","name":"id","type":"uint256"}],"name":"closeProposal","outputs":[],"stateMutability":"nonpayable","type":"function"},{"inputs":[{"internalType":"string","name":"title","type":"string"},{"internalType":"string","name":"description","type":"string"},{"internalType":"enum CountingMode","name":"mode","type":"uint8"},{"internalType":"string[]","name":"options","type":"string[]"},{"internalType":"uint32","name":"duration","type":"uint32"}],"name":"createProposal","outputs":[{"internalType":"uint256","name":"id","type":"uint256"}],"stateMutability":"nonpayable","type":"function"},{"inputs":[{"internalType":"uint256","name":"id","type":"uint256"}],"name":"getProposal","outputs":[{"internalType":"string","name":"title","type":"string"},{"internalType":"enum CountingMode","name":"mode","type":"uint8"},{"internalType":"bool","name":"open","type":"bool"},{"internalType":"uint64","name":"closes","type":"uint64"},{"internalType":"string[]","name":"options","type":"string[]"}],"stateMutability":"view","type":"function"},{"inputs":[],"name":"govToken","outputs":[{"internalType":"contract IERC20Votes","name":"","type":"address"}],"stateMutability":"view","type":"function"},{"inputs":[],"name":"memberMerkleRoot","outputs":[{"internalType":"uint256","name":"","type":"uint256"}],"stateMutability":"view","type":"function"},{"inputs":[],"name":"owner","outputs":[{"internalType":"address","name":"","type":"address"}],"stateMutability":"view","type":"function"},{"inputs":[],"name":"proposalCount","outputs":[{"internalType":"uint256","name":"","type":"uint256"}],"stateMutability":"view","type":"function"},{"inputs":[],"name":"renounceOwnership","outputs":[],"stateMutability":"nonpayable","type":"function"},{"inputs":[{"internalType":"uint256","name":"id","type":"uint256"},{"internalType":"uint16","name":"start","type":"uint16"},{"internalType":"uint16","name":"n","type":"uint16"}],"name":"tallies","outputs":[{"internalType":"uint256[]","name":"out","type":"uint256[]"}],"stateMutability":"view","type":"function"},{"inputs":[{"internalType":"address","name":"newOwner","type":"address"}],"name":"transferOwnership","outputs":[],"stateMutability":"nonpayable","type":"function"},{"inputs":[{"internalType":"uint256","name":"newRoot","type":"uint256"}],"name":"updateMemberRoot","outputs":[],"stateMutability":"nonpayable","type":"function"},{"inputs":[],"name":"verifier","outputs":[{"internalType":"contract SemaphoreVerifier","name":"","type":"address"}],"stateMutability":"view","type":"function"},{"inputs":[{"internalType":"uint256","name":"id","type":"uint256"},{"internalType":"uint8","name":"option","type":"uint8"},{"internalType":"uint256","name":"signalHash","type":"uint256"},{"internalType":"uint256","name":"nullifierHash","type":"uint256"},{"internalType":"uint256","name":"merkleRoot","type":"uint256"},{"internalType":"uint256[8]","name":"proof","type":"uint256[8]"}],"name":"vote","outputs":[],"stateMutability":"nonpayable","type":"function"}],"evm":{"bytecode":{"linkReferences":{},"object":"60c06040523480156200001157600080fd5b5060405162002ee338038062002ee38339818101604052810190620000379190620002f9565b33600073ffffffffffffffffffffffffffffffffffffffff168173ffffffffffffffffffffffffffffffffffffffff1603620000ad5760006040517f1e4fbdf7000000000000000000000000000000000000000000000000000000008152600401620000a4919062000366565b60405180910390fd5b620000be816200013760201b60201c565b508273ffffffffffffffffffffffffffffffffffffffff1660808173ffffffffffffffffffffffffffffffffffffffff1681525050816001819055508073ffffffffffffffffffffffffffffffffffffffff1660a08173ffffffffffffffffffffffffffffffffffffffff168152505050505062000383565b60008060009054906101000a900473ffffffffffffffffffffffffffffffffffffffff169050816000806101000a81548173ffffffffffffffffffffffffffffffffffffffff021916908373ffffffffffffffffffffffffffffffffffffffff1602179055508173ffffffffffffffffffffffffffffffffffffffff168173ffffffffffffffffffffffffffffffffffffffff167f8be0079c531659141344cd1fd0a4f28419497f9722a3daafe3b4186f6b6457e060405160405180910390a35050565b600080fd5b600073ffffffffffffffffffffffffffffffffffffffff82169050919050565b60006200022d8262000200565b9050919050565b6000620002418262000220565b9050919050565b620002538162000234565b81146200025f57600080fd5b50565b600081519050620002738162000248565b92915050565b6000819050919050565b6200028e8162000279565b81146200029a57600080fd5b50565b600081519050620002ae8162000283565b92915050565b6000620002c18262000220565b9050919050565b620002d381620002b4565b8114620002df57600080fd5b50565b600081519050620002f381620002c8565b92915050565b600080600060608486031215620003155762000314620001fb565b5b6000620003258682870162000262565b935050602062000338868287016200029d565b92505060406200034b86828701620002e2565b9150509250925092565b620003608162000220565b82525050565b60006020820190506200037d600083018462000355565b92915050565b60805160a051612b25620003be6000396000818161040f01528181610c650152610ca601526000818161088c0152610ac00152612b256000f3fe608060405234801561001057600080fd5b50600436106100cf5760003560e01c80635a9c50d21161008c5780638da5cb5b116100665780638da5cb5b146101ec578063c7f758a81461020a578063da35c6641461023e578063f2fde38b1461025c576100cf565b80635a9c50d2146101a8578063715018a6146101c457806385f0ad84146101ce576100cf565b80630386a016146100d457806305268cff146100f05780630a898f491461010e578063112f69911461013e5780631809beba1461015a5780632b7ac3f31461018a575b600080fd5b6100ee60048036038101906100e991906114e5565b610278565b005b6100f861040d565b6040516101059190611591565b60405180910390f35b610128600480360381019061012391906116c8565b610431565b60405161013591906117b3565b60405180910390f35b610158600480360381019061015391906114e5565b610632565b005b610174600480360381019061016f9190611808565b61067b565b6040516101819190611919565b60405180910390f35b61019261088a565b60405161019f919061195c565b60405180910390f35b6101c260048036038101906101bd91906119d2565b6108ae565b005b6101cc610e0c565b005b6101d6610e20565b6040516101e391906117b3565b60405180910390f35b6101f4610e26565b6040516102019190611a81565b60405180910390f35b610224600480360381019061021f91906114e5565b610e4f565b604051610235959493929190611ced565b60405180910390f35b610246611055565b60405161025391906117b3565b60405180910390f35b61027660048036038101906102719190611d7a565b61105b565b005b60006003600083815260200190815260200160002090508060060160089054906101000a900460ff16156102e1576040517f08c379a00000000000000000000000000000000000000000000000000000000081526004016102d890611df3565b60405180910390fd5b8060060160009054906101000a900467ffffffffffffffff1667ffffffffffffffff16421015610346576040517f08c379a000000000000000000000000000000000000000000000000000000000815260040161033d90611e5f565b60405180910390fd5b60018160060160086101000a81548160ff021916908315150217905550600060ff90506000805b83600301805490508160ff1610156103ce5760008460040160008360ff168152602001908152602001600020549050828111156103af578092508193506103bc565b8281036103bb5760ff93505b5b50806103c790611eae565b905061036d565b50837f72b5ce25e9823e74d98ed37f5ce167c0ed7e8728dd1d45326ee475b9ac9ba427836040516103ff9190611ee6565b60405180910390a250505050565b7f000000000000000000000000000000000000000000000000000000000000000081565b600061043b6110e1565b6002848490501015610482576040517f08c379a000000000000000000000000000000000000000000000000000000000815260040161047990611f4d565b60405180910390fd5b60026000815461049190611f6d565b9190508190559050600060036000838152602001908152602001600020905089898260000191826104c39291906121f1565b5087878260010191826104d79291906121f1565b50858160020160006101000a81548160ff021916908360018111156104ff576104fe611b2c565b5b02179055508060030160006105149190611403565b60005b858590508110156105925781600301868683818110610539576105386122c1565b5b905060200281019061054b91906122ff565b909180600181540180825580915050600190039060005260206000200160009091929091929091929091925091826105849291906121f1565b508080600101915050610517565b508263ffffffff16426105a59190612362565b8160060160006101000a81548167ffffffffffffffff021916908367ffffffffffffffff160217905550817f6f20a81eb0aacaf8ee50c24f6af2659e67742060a556dbfe8b5f30a833371daa878c8c8560060160009054906101000a900467ffffffffffffffff1660405161061d94939291906123da565b60405180910390a25098975050505050505050565b61063a6110e1565b806001819055507fa983c43a31d5106526385dbcecc40fb9547eefb4b0f7d2e43b5fc71448dc8c098160405161067091906117b3565b60405180910390a150565b606060006003600086815260200190815260200160002090506000816003018054905090508061ffff168561ffff16106106ea576040517f08c379a00000000000000000000000000000000000000000000000000000000081526004016106e190612466565b60405180910390fd5b6000808561ffff16148061071057508161ffff16858761070a9190612486565b61ffff16115b8061072d57508561ffff1685876107279190612486565b61ffff16105b61074257848661073d9190612486565b610744565b815b90508061ffff168661ffff1610158015610762575060008261ffff16115b156107bb57600067ffffffffffffffff81111561078257610781611fc0565b5b6040519080825280602002602001820160405280156107b05781602001602082028036833780820191505090505b509350505050610883565b85816107c791906124bc565b61ffff1667ffffffffffffffff8111156107e4576107e3611fc0565b5b6040519080825280602002602001820160405280156108125781602001602082028036833780820191505090505b50935060008690505b8161ffff168161ffff16101561087e578360040160008261ffff1681526020019081526020016000205485888361085291906124bc565b61ffff1681518110610867576108666122c1565b5b60200260200101818152505080600101905061081b565b505050505b9392505050565b7f000000000000000000000000000000000000000000000000000000000000000081565b60006003600088815260200190815260200160002090508060060160009054906101000a900467ffffffffffffffff1667ffffffffffffffff164210610929576040517f08c379a00000000000000000000000000000000000000000000000000000000081526004016109209061253e565b60405180910390fd5b80600301805490508660ff1610610975576040517f08c379a000000000000000000000000000000000000000000000000000000000815260040161096c906125aa565b60405180910390fd5b80600501600085815260200190815260200160002060009054906101000a900460ff16156109d8576040517f08c379a00000000000000000000000000000000000000000000000000000000081526004016109cf90612616565b60405180910390fd5b6001548314610a1c576040517f08c379a0000000000000000000000000000000000000000000000000000000008152600401610a1390612682565b60405180910390fd5b6000610a2a8760ff16611168565b604051602001610a3a919061272a565b6040516020818303038152906040528051906020012090508060001c8614610a97576040517f08c379a0000000000000000000000000000000000000000000000000000000008152600401610a8e90612798565b60405180910390fd5b600060405180608001604052808681526020018781526020018881526020018a815250905060007f000000000000000000000000000000000000000000000000000000000000000073ffffffffffffffffffffffffffffffffffffffff16632357251186846040518363ffffffff1660e01b8152600401610b19929190612856565b602060405180830381865afa158015610b36573d6000803e3d6000fd5b505050506040513d601f19601f82011682018060405250810190610b5a91906128ad565b905080610b9c576040517f08c379a0000000000000000000000000000000000000000000000000000000008152600401610b9390612926565b60405180910390fd5b897f80e303d0aad176107b4ce4f8c65dc7f16df914f319bad37d18f35c02f0a597db87898b604051610bd093929190612946565b60405180910390a2600184600501600089815260200190815260200160002060006101000a81548160ff021916908315150217905550600060019050600180811115610c1f57610c1e611b2c565b5b8560020160009054906101000a900460ff166001811115610c4357610c42611b2c565b5b148015610c9d5750600073ffffffffffffffffffffffffffffffffffffffff167f000000000000000000000000000000000000000000000000000000000000000073ffffffffffffffffffffffffffffffffffffffff1614155b15610d4d5760007f000000000000000000000000000000000000000000000000000000000000000073ffffffffffffffffffffffffffffffffffffffff16639ab24eb0336040518263ffffffff1660e01b8152600401610cfd9190611a81565b602060405180830381865afa158015610d1a573d6000803e3d6000fd5b505050506040513d601f19601f82011682018060405250810190610d3e9190612992565b9050610d49816112c8565b9150505b808560040160008c60ff168152602001908152602001600020600082825401925050819055508a7f56bd80d53a258d2249bab33821ad5288cc0c2b3d17b5ce7c41c7d67bbcc2982a8b8a84604051610da7939291906129bf565b60405180910390a28460060160009054906101000a900467ffffffffffffffff1667ffffffffffffffff164210158015610df057508460060160089054906101000a900460ff16155b15610dff57610dfe8b610278565b5b5050505050505050505050565b610e146110e1565b610e1e6000611337565b565b60015481565b60008060009054906101000a900473ffffffffffffffffffffffffffffffffffffffff16905090565b6060600080600060606000600360008881526020019081526020016000209050806000018160020160009054906101000a900460ff168260060160089054906101000a900460ff16158015610ec557508260060160009054906101000a900467ffffffffffffffff1667ffffffffffffffff1642105b8360060160009054906101000a900467ffffffffffffffff1684600301848054610eee9061201e565b80601f0160208091040260200160405190810160405280929190818152602001828054610f1a9061201e565b8015610f675780601f10610f3c57610100808354040283529160200191610f67565b820191906000526020600020905b815481529060010190602001808311610f4a57829003601f168201915b5050505050945080805480602002602001604051908101604052809291908181526020016000905b8282101561103b578382906000526020600020018054610fae9061201e565b80601f0160208091040260200160405190810160405280929190818152602001828054610fda9061201e565b80156110275780601f10610ffc57610100808354040283529160200191611027565b820191906000526020600020905b81548152906001019060200180831161100a57829003601f168201915b505050505081526020019060010190610f8f565b505050509050955095509550955095505091939590929450565b60025481565b6110636110e1565b600073ffffffffffffffffffffffffffffffffffffffff168173ffffffffffffffffffffffffffffffffffffffff16036110d55760006040517f1e4fbdf70000000000000000000000000000000000000000000000000000000081526004016110cc9190611a81565b60405180910390fd5b6110de81611337565b50565b6110e96113fb565b73ffffffffffffffffffffffffffffffffffffffff16611107610e26565b73ffffffffffffffffffffffffffffffffffffffff16146111665761112a6113fb565b6040517f118cdaa700000000000000000000000000000000000000000000000000000000815260040161115d9190611a81565b60405180910390fd5b565b6060600082036111af576040518060400160405280600181526020017f300000000000000000000000000000000000000000000000000000000000000081525090506112c3565b600082905060005b600082146111e15780806111ca90611f6d565b915050600a826111da9190612a25565b91506111b7565b60008167ffffffffffffffff8111156111fd576111fc611fc0565b5b6040519080825280601f01601f19166020018201604052801561122f5781602001600182028036833780820191505090505b5090505b600085146112bc576001826112489190612a56565b9150600a856112579190612a8a565b60306112639190612abb565b60f81b818381518110611279576112786122c1565b5b60200101907effffffffffffffffffffffffffffffffffffffffffffffffffffffffffffff1916908160001a905350600a856112b59190612a25565b9450611233565b8093505050505b919050565b60008082036112da5760009050611332565b600060026001846112eb9190612abb565b6112f59190612a25565b90508291505b818110156113305780915060028182856113159190612a25565b61131f9190612abb565b6113299190612a25565b90506112fb565b505b919050565b60008060009054906101000a900473ffffffffffffffffffffffffffffffffffffffff169050816000806101000a81548173ffffffffffffffffffffffffffffffffffffffff021916908373ffffffffffffffffffffffffffffffffffffffff1602179055508173ffffffffffffffffffffffffffffffffffffffff168173ffffffffffffffffffffffffffffffffffffffff167f8be0079c531659141344cd1fd0a4f28419497f9722a3daafe3b4186f6b6457e060405160405180910390a35050565b600033905090565b50805460008255906000526020600020908101906114219190611424565b50565b5b80821115611444576000818161143b9190611448565b50600101611425565b5090565b5080546114549061201e565b6000825580601f106114665750611485565b601f0160209004906000526020600020908101906114849190611488565b5b50565b5b808211156114a1576000816000905550600101611489565b5090565b600080fd5b600080fd5b6000819050919050565b6114c2816114af565b81146114cd57600080fd5b50565b6000813590506114df816114b9565b92915050565b6000602082840312156114fb576114fa6114a5565b5b6000611509848285016114d0565b91505092915050565b600073ffffffffffffffffffffffffffffffffffffffff82169050919050565b6000819050919050565b600061155761155261154d84611512565b611532565b611512565b9050919050565b60006115698261153c565b9050919050565b600061157b8261155e565b9050919050565b61158b81611570565b82525050565b60006020820190506115a66000830184611582565b92915050565b600080fd5b600080fd5b600080fd5b60008083601f8401126115d1576115d06115ac565b5b8235905067ffffffffffffffff8111156115ee576115ed6115b1565b5b60208301915083600182028301111561160a576116096115b6565b5b9250929050565b6002811061161e57600080fd5b50565b60008135905061163081611611565b92915050565b60008083601f84011261164c5761164b6115ac565b5b8235905067ffffffffffffffff811115611669576116686115b1565b5b602083019150836020820283011115611685576116846115b6565b5b9250929050565b600063ffffffff82169050919050565b6116a58161168c565b81146116b057600080fd5b50565b6000813590506116c28161169c565b92915050565b60008060008060008060008060a0898b0312156116e8576116e76114a5565b5b600089013567ffffffffffffffff811115611706576117056114aa565b5b6117128b828c016115bb565b9850985050602089013567ffffffffffffffff811115611735576117346114aa565b5b6117418b828c016115bb565b965096505060406117548b828c01611621565b945050606089013567ffffffffffffffff811115611775576117746114aa565b5b6117818b828c01611636565b935093505060806117948b828c016116b3565b9150509295985092959890939650565b6117ad816114af565b82525050565b60006020820190506117c860008301846117a4565b92915050565b600061ffff82169050919050565b6117e5816117ce565b81146117f057600080fd5b50565b600081359050611802816117dc565b92915050565b600080600060608486031215611821576118206114a5565b5b600061182f868287016114d0565b9350506020611840868287016117f3565b9250506040611851868287016117f3565b9150509250925092565b600081519050919050565b600082825260208201905092915050565b6000819050602082019050919050565b611890816114af565b82525050565b60006118a28383611887565b60208301905092915050565b6000602082019050919050565b60006118c68261185b565b6118d08185611866565b93506118db83611877565b8060005b8381101561190c5781516118f38882611896565b97506118fe836118ae565b9250506001810190506118df565b5085935050505092915050565b6000602082019050818103600083015261193381846118bb565b905092915050565b60006119468261155e565b9050919050565b6119568161193b565b82525050565b6000602082019050611971600083018461194d565b92915050565b600060ff82169050919050565b61198d81611977565b811461199857600080fd5b50565b6000813590506119aa81611984565b92915050565b6000819050826020600802820111156119cc576119cb6115b6565b5b92915050565b6000806000806000806101a087890312156119f0576119ef6114a5565b5b60006119fe89828a016114d0565b9650506020611a0f89828a0161199b565b9550506040611a2089828a016114d0565b9450506060611a3189828a016114d0565b9350506080611a4289828a016114d0565b92505060a0611a5389828a016119b0565b9150509295509295509295565b6000611a6b82611512565b9050919050565b611a7b81611a60565b82525050565b6000602082019050611a966000830184611a72565b92915050565b600081519050919050565b600082825260208201905092915050565b60005b83811015611ad6578082015181840152602081019050611abb565b60008484015250505050565b6000601f19601f8301169050919050565b6000611afe82611a9c565b611b088185611aa7565b9350611b18818560208601611ab8565b611b2181611ae2565b840191505092915050565b7f4e487b7100000000000000000000000000000000000000000000000000000000600052602160045260246000fd5b60028110611b6c57611b6b611b2c565b5b50565b6000819050611b7d82611b5b565b919050565b6000611b8d82611b6f565b9050919050565b611b9d81611b82565b82525050565b60008115159050919050565b611bb881611ba3565b82525050565b600067ffffffffffffffff82169050919050565b611bdb81611bbe565b82525050565b600081519050919050565b600082825260208201905092915050565b6000819050602082019050919050565b600082825260208201905092915050565b6000611c2982611a9c565b611c338185611c0d565b9350611c43818560208601611ab8565b611c4c81611ae2565b840191505092915050565b6000611c638383611c1e565b905092915050565b6000602082019050919050565b6000611c8382611be1565b611c8d8185611bec565b935083602082028501611c9f85611bfd565b8060005b85811015611cdb5784840389528151611cbc8582611c57565b9450611cc783611c6b565b925060208a01995050600181019050611ca3565b50829750879550505050505092915050565b600060a0820190508181036000830152611d078188611af3565b9050611d166020830187611b94565b611d236040830186611baf565b611d306060830185611bd2565b8181036080830152611d428184611c78565b90509695505050505050565b611d5781611a60565b8114611d6257600080fd5b50565b600081359050611d7481611d4e565b92915050565b600060208284031215611d9057611d8f6114a5565b5b6000611d9e84828501611d65565b91505092915050565b7f616c726561647920636c6f736564000000000000000000000000000000000000600082015250565b6000611ddd600e83611aa7565b9150611de882611da7565b602082019050919050565b60006020820190508181036000830152611e0c81611dd0565b9050919050565b7f6e6f742065787069726564000000000000000000000000000000000000000000600082015250565b6000611e49600b83611aa7565b9150611e5482611e13565b602082019050919050565b60006020820190508181036000830152611e7881611e3c565b9050919050565b7f4e487b7100000000000000000000000000000000000000000000000000000000600052601160045260246000fd5b6000611eb982611977565b915060ff8203611ecc57611ecb611e7f565b5b600182019050919050565b611ee081611977565b82525050565b6000602082019050611efb6000830184611ed7565b92915050565b7f6e65656420322b206f7074730000000000000000000000000000000000000000600082015250565b6000611f37600c83611aa7565b9150611f4282611f01565b602082019050919050565b60006020820190508181036000830152611f6681611f2a565b9050919050565b6000611f78826114af565b91507fffffffffffffffffffffffffffffffffffffffffffffffffffffffffffffffff8203611faa57611fa9611e7f565b5b600182019050919050565b600082905092915050565b7f4e487b7100000000000000000000000000000000000000000000000000000000600052604160045260246000fd5b7f4e487b7100000000000000000000000000000000000000000000000000000000600052602260045260246000fd5b6000600282049050600182168061203657607f821691505b60208210810361204957612048611fef565b5b50919050565b60008190508160005260206000209050919050565b60006020601f8301049050919050565b600082821b905092915050565b6000600883026120b17fffffffffffffffffffffffffffffffffffffffffffffffffffffffffffffffff82612074565b6120bb8683612074565b95508019841693508086168417925050509392505050565b60006120ee6120e96120e4846114af565b611532565b6114af565b9050919050565b6000819050919050565b612108836120d3565b61211c612114826120f5565b848454612081565b825550505050565b600090565b612131612124565b61213c8184846120ff565b505050565b5b8181101561216057612155600082612129565b600181019050612142565b5050565b601f8211156121a5576121768161204f565b61217f84612064565b8101602085101561218e578190505b6121a261219a85612064565b830182612141565b50505b505050565b600082821c905092915050565b60006121c8600019846008026121aa565b1980831691505092915050565b60006121e183836121b7565b9150826002028217905092915050565b6121fb8383611fb5565b67ffffffffffffffff81111561221457612213611fc0565b5b61221e825461201e565b612229828285612164565b6000601f8311600181146122585760008415612246578287013590505b61225085826121d5565b8655506122b8565b601f1984166122668661204f565b60005b8281101561228e57848901358255600182019150602085019450602081019050612269565b868310156122ab57848901356122a7601f8916826121b7565b8355505b6001600288020188555050505b50505050505050565b7f4e487b7100000000000000000000000000000000000000000000000000000000600052603260045260246000fd5b600080fd5b600080fd5b600080fd5b6000808335600160200384360303811261231c5761231b6122f0565b5b80840192508235915067ffffffffffffffff82111561233e5761233d6122f5565b5b60208301925060018202360383131561235a576123596122fa565b5b509250929050565b600061236d82611bbe565b915061237883611bbe565b9250828201905067ffffffffffffffff81111561239857612397611e7f565b5b92915050565b82818337600083830152505050565b60006123b98385611aa7565b93506123c683858461239e565b6123cf83611ae2565b840190509392505050565b60006060820190506123ef6000830187611b94565b81810360208301526124028185876123ad565b90506124116040830184611bd2565b95945050505050565b7f6f6f620000000000000000000000000000000000000000000000000000000000600082015250565b6000612450600383611aa7565b915061245b8261241a565b602082019050919050565b6000602082019050818103600083015261247f81612443565b9050919050565b6000612491826117ce565b915061249c836117ce565b9250828201905061ffff8111156124b6576124b5611e7f565b5b92915050565b60006124c7826117ce565b91506124d2836117ce565b9250828203905061ffff8111156124ec576124eb611e7f565b5b92915050565b7f766f74696e6720697320636c6f73656400000000000000000000000000000000600082015250565b6000612528601083611aa7565b9150612533826124f2565b602082019050919050565b600060208201905081810360008301526125578161251b565b9050919050565b7f696e76616c6964206f7074696f6e000000000000000000000000000000000000600082015250565b6000612594600e83611aa7565b915061259f8261255e565b602082019050919050565b600060208201905081810360008301526125c381612587565b9050919050565b7f766f746520616c72656164792063617374000000000000000000000000000000600082015250565b6000612600601183611aa7565b915061260b826125ca565b602082019050919050565b6000602082019050818103600083015261262f816125f3565b9050919050565b7f696e76616c6964206d65726b6c6520726f6f7400000000000000000000000000600082015250565b600061266c601383611aa7565b915061267782612636565b602082019050919050565b6000602082019050818103600083015261269b8161265f565b9050919050565b600081905092915050565b7f564f54455f000000000000000000000000000000000000000000000000000000600082015250565b60006126e36005836126a2565b91506126ee826126ad565b600582019050919050565b600061270482611a9c565b61270e81856126a2565b935061271e818560208601611ab8565b80840191505092915050565b6000612735826126d6565b915061274182846126f9565b915081905092915050565b7f7369676e616c2d6f7074696f6e206d69736d6174636800000000000000000000600082015250565b6000612782601683611aa7565b915061278d8261274c565b602082019050919050565b600060208201905081810360008301526127b181612775565b9050919050565b82818337505050565b6127ce61010083836127b8565b5050565b600060049050919050565b600081905092915050565b6000819050919050565b6000602082019050919050565b612808816127d2565b61281281846127dd565b925061281d826127e8565b8060005b8381101561284e5781516128358782611896565b9650612840836127f2565b925050600181019050612821565b505050505050565b60006101808201905061286c60008301856127c1565b61287a6101008301846127ff565b9392505050565b61288a81611ba3565b811461289557600080fd5b50565b6000815190506128a781612881565b92915050565b6000602082840312156128c3576128c26114a5565b5b60006128d184828501612898565b91505092915050565b7f696e76616c69642070726f6f6600000000000000000000000000000000000000600082015250565b6000612910600d83611aa7565b915061291b826128da565b602082019050919050565b6000602082019050818103600083015261293f81612903565b9050919050565b600060608201905061295b60008301866117a4565b61296860208301856117a4565b61297560408301846117a4565b949350505050565b60008151905061298c816114b9565b92915050565b6000602082840312156129a8576129a76114a5565b5b60006129b68482850161297d565b91505092915050565b60006060820190506129d46000830186611ed7565b6129e160208301856117a4565b6129ee60408301846117a4565b949350505050565b7f4e487b7100000000000000000000000000000000000000000000000000000000600052601260045260246000fd5b6000612a30826114af565b9150612a3b836114af565b925082612a4b57612a4a6129f6565b5b828204905092915050565b6000612a61826114af565b9150612a6c836114af565b9250828203905081811115612a8457612a83611e7f565b5b92915050565b6000612a95826114af565b9150612aa0836114af565b925082612ab057612aaf6129f6565b5b828206905092915050565b6000612ac6826114af565b9150612ad1836114af565b9250828201905080821115612ae957612ae8611e7f565b5b9291505056fea2646970667358221220c7a9e3ae23efd44cbda08137fc76e0017c24151b956d30e446ace3fb51c0391664736f6c63430008180033","opcodes":"PUSH1 0xC0 PUSH1 0x40 MSTORE CALLVALUE DUP1 ISZERO PUSH3 0x11 JUMPI PUSH1 0x0 DUP1 REVERT JUMPDEST POP PUSH1 0x40 MLOAD PUSH3 0x2EE3 CODESIZE SUB DUP1 PUSH3 0x2EE3 DUP4 CODECOPY DUP2 DUP2 ADD PUSH1 0x40 MSTORE DUP2 ADD SWAP1 PUSH3 0x37 SWAP2 SWAP1 PUSH3 0x2F9 JUMP JUMPDEST CALLER PUSH1 0x0 PUSH20 0xFFFFFFFFFFFFFFFFFFFFFFFFFFFFFFFFFFFFFFFF AND DUP2 PUSH20 0xFFFFFFFFFFFFFFFFFFFFFFFFFFFFFFFFFFFFFFFF AND SUB PUSH3 0xAD JUMPI PUSH1 0x0 PUSH1 0x40 MLOAD PUSH32 0x1E4FBDF700000000000000000000000000000000000000000000000000000000 DUP2 MSTORE PUSH1 0x4 ADD PUSH3 0xA4 SWAP2 SWAP1 PUSH3 0x366 JUMP JUMPDEST PUSH1 0x40 MLOAD DUP1 SWAP2 SUB SWAP1 REVERT JUMPDEST PUSH3 0xBE DUP2 PUSH3 0x137 PUSH1 0x20 SHL PUSH1 0x20 SHR JUMP JUMPDEST POP DUP3 PUSH20 0xFFFFFFFFFFFFFFFFFFFFFFFFFFFFFFFFFFFFFFFF AND PUSH1 0x80 DUP2 PUSH20 0xFFFFFFFFFFFFFFFFFFFFFFFFFFFFFFFFFFFFFFFF AND DUP2 MSTORE POP POP DUP2 PUSH1 0x1 DUP2 SWAP1 SSTORE POP DUP1 PUSH20 0xFFFFFFFFFFFFFFFFFFFFFFFFFFFFFFFFFFFFFFFF AND PUSH1 0xA0 DUP2 PUSH20 0xFFFFFFFFFFFFFFFFFFFFFFFFFFFFFFFFFFFFFFFF AND DUP2 MSTORE POP POP POP POP POP PUSH3 0x383 JUMP JUMPDEST PUSH1 0x0 DUP1 PUSH1 0x0 SWAP1 SLOAD SWAP1 PUSH2 0x100 EXP SWAP1 DIV PUSH20 0xFFFFFFFFFFFFFFFFFFFFFFFFFFFFFFFFFFFFFFFF AND SWAP1 POP DUP2 PUSH1 0x0 DUP1 PUSH2 0x100 EXP DUP2 SLOAD DUP2 PUSH20 0xFFFFFFFFFFFFFFFFFFFFFFFFFFFFFFFFFFFFFFFF MUL NOT AND SWAP1 DUP4 PUSH20 0xFFFFFFFFFFFFFFFFFFFFFFFFFFFFFFFFFFFFFFFF AND MUL OR SWAP1 SSTORE POP DUP2 PUSH20 0xFFFFFFFFFFFFFFFFFFFFFFFFFFFFFFFFFFFFFFFF AND DUP2 PUSH20 0xFFFFFFFFFFFFFFFFFFFFFFFFFFFFFFFFFFFFFFFF AND PUSH32 0x8BE0079C531659141344CD1FD0A4F28419497F9722A3DAAFE3B4186F6B6457E0 PUSH1 0x40 MLOAD PUSH1 0x40 MLOAD DUP1 SWAP2 SUB SWAP1 LOG3 POP POP JUMP JUMPDEST PUSH1 0x0 DUP1 REVERT JUMPDEST PUSH1 0x0 PUSH20 0xFFFFFFFFFFFFFFFFFFFFFFFFFFFFFFFFFFFFFFFF DUP3 AND SWAP1 POP SWAP2 SWAP1 POP JUMP JUMPDEST PUSH1 0x0 PUSH3 0x22D DUP3 PUSH3 0x200 JUMP JUMPDEST SWAP1 POP SWAP2 SWAP1 POP JUMP JUMPDEST PUSH1 0x0 PUSH3 0x241 DUP3 PUSH3 0x220 JUMP JUMPDEST SWAP1 POP SWAP2 SWAP1 POP JUMP JUMPDEST PUSH3 0x253 DUP2 PUSH3 0x234 JUMP JUMPDEST DUP2 EQ PUSH3 0x25F JUMPI PUSH1 0x0 DUP1 REVERT JUMPDEST POP JUMP JUMPDEST PUSH1 0x0 DUP2 MLOAD SWAP1 POP PUSH3 0x273 DUP2 PUSH3 0x248 JUMP JUMPDEST SWAP3 SWAP2 POP POP JUMP JUMPDEST PUSH1 0x0 DUP2 SWAP1 POP SWAP2 SWAP1 POP JUMP JUMPDEST PUSH3 0x28E DUP2 PUSH3 0x279 JUMP JUMPDEST DUP2 EQ PUSH3 0x29A JUMPI PUSH1 0x0 DUP1 REVERT JUMPDEST POP JUMP JUMPDEST PUSH1 0x0 DUP2 MLOAD SWAP1 POP PUSH3 0x2AE DUP2 PUSH3 0x283 JUMP JUMPDEST SWAP3 SWAP2 POP POP JUMP JUMPDEST PUSH1 0x0 PUSH3 0x2C1 DUP3 PUSH3 0x220 JUMP JUMPDEST SWAP1 POP SWAP2 SWAP1 POP JUMP JUMPDEST PUSH3 0x2D3 DUP2 PUSH3 0x2B4 JUMP JUMPDEST DUP2 EQ PUSH3 0x2DF JUMPI PUSH1 0x0 DUP1 REVERT JUMPDEST POP JUMP JUMPDEST PUSH1 0x0 DUP2 MLOAD SWAP1 POP PUSH3 0x2F3 DUP2 PUSH3 0x2C8 JUMP JUMPDEST SWAP3 SWAP2 POP POP JUMP JUMPDEST PUSH1 0x0 DUP1 PUSH1 0x0 PUSH1 0x60 DUP5 DUP7 SUB SLT ISZERO PUSH3 0x315 JUMPI PUSH3 0x314 PUSH3 0x1FB JUMP JUMPDEST JUMPDEST PUSH1 0x0 PUSH3 0x325 DUP7 DUP3 DUP8 ADD PUSH3 0x262 JUMP JUMPDEST SWAP4 POP POP PUSH1 0x20 PUSH3 0x338 DUP7 DUP3 DUP8 ADD PUSH3 0x29D JUMP JUMPDEST SWAP3 POP POP PUSH1 0x40 PUSH3 0x34B DUP7 DUP3 DUP8 ADD PUSH3 0x2E2 JUMP JUMPDEST SWAP2 POP POP SWAP3 POP SWAP3 POP SWAP3 JUMP JUMPDEST PUSH3 0x360 DUP2 PUSH3 0x220 JUMP JUMPDEST DUP3 MSTORE POP POP JUMP JUMPDEST PUSH1 0x0 PUSH1 0x20 DUP3 ADD SWAP1 POP PUSH3 0x37D PUSH1 0x0 DUP4 ADD DUP5 PUSH3 0x355 JUMP JUMPDEST SWAP3 SWAP2 POP POP JUMP JUMPDEST PUSH1 0x80 MLOAD PUSH1 0xA0 MLOAD PUSH2 0x2B25 PUSH3 0x3BE PUSH1 0x0 CODECOPY PUSH1 0x0 DUP2 DUP2 PUSH2 0x40F ADD MSTORE DUP2 DUP2 PUSH2 0xC65 ADD MSTORE PUSH2 0xCA6 ADD MSTORE PUSH1 0x0 DUP2 DUP2 PUSH2 0x88C ADD MSTORE PUSH2 0xAC0 ADD MSTORE PUSH2 0x2B25 PUSH1 0x0 RETURN INVALID PUSH1 0x80 PUSH1 0x40 MSTORE CALLVALUE DUP1 ISZERO PUSH2 0x10 JUMPI PUSH1 0x0 DUP1 REVERT JUMPDEST POP PUSH1 0x4 CALLDATASIZE LT PUSH2 0xCF JUMPI PUSH1 0x0 CALLDATALOAD PUSH1 0xE0 SHR DUP1 PUSH4 0x5A9C50D2 GT PUSH2 0x8C JUMPI DUP1 PUSH4 0x8DA5CB5B GT PUSH2 0x66 JUMPI DUP1 PUSH4 0x8DA5CB5B EQ PUSH2 0x1EC JUMPI DUP1 PUSH4 0xC7F758A8 EQ PUSH2 0x20A JUMPI DUP1 PUSH4 0xDA35C664 EQ PUSH2 0x23E JUMPI DUP1 PUSH4 0xF2FDE38B EQ PUSH2 0x25C JUMPI PUSH2 0xCF JUMP JUMPDEST DUP1 PUSH4 0x5A9C50D2 EQ PUSH2 0x1A8 JUMPI DUP1 PUSH4 0x715018A6 EQ PUSH2 0x1C4 JUMPI DUP1 PUSH4 0x85F0AD84 EQ PUSH2 0x1CE JUMPI PUSH2 0xCF JUMP JUMPDEST DUP1 PUSH4 0x386A016 EQ PUSH2 0xD4 JUMPI DUP1 PUSH4 0x5268CFF EQ PUSH2 0xF0 JUMPI DUP1 PUSH4 0xA898F49 EQ PUSH2 0x10E JUMPI DUP1 PUSH4 0x112F6991 EQ PUSH2 0x13E JUMPI DUP1 PUSH4 0x1809BEBA EQ PUSH2 0x15A JUMPI DUP1 PUSH4 0x2B7AC3F3 EQ PUSH2 0x18A JUMPI JUMPDEST PUSH1 0x0 DUP1 REVERT JUMPDEST PUSH2 0xEE PUSH1 0x4 DUP1 CALLDATASIZE SUB DUP2 ADD SWAP1 PUSH2 0xE9 SWAP2 SWAP1 PUSH2 0x14E5 JUMP JUMPDEST PUSH2 0x278 JUMP JUMPDEST STOP JUMPDEST PUSH2 0xF8 PUSH2 0x40D JUMP JUMPDEST PUSH1 0x40 MLOAD PUSH2 0x105 SWAP2 SWAP1 PUSH2 0x1591 JUMP JUMPDEST PUSH1 0x40 MLOAD DUP1 SWAP2 SUB SWAP1 RETURN JUMPDEST PUSH2 0x128 PUSH1 0x4 DUP1 CALLDATASIZE SUB DUP2 ADD SWAP1 PUSH2 0x123 SWAP2 SWAP1 PUSH2 0x16C8 JUMP JUMPDEST PUSH2 0x431 JUMP JUMPDEST PUSH1 0x40 MLOAD PUSH2 0x135 SWAP2 SWAP1 PUSH2 0x17B3 JUMP JUMPDEST PUSH1 0x40 MLOAD DUP1 SWAP2 SUB SWAP1 RETURN JUMPDEST PUSH2 0x158 PUSH1 0x4 DUP1 CALLDATASIZE SUB DUP2 ADD SWAP1 PUSH2 0x153 SWAP2 SWAP1 PUSH2 0x14E5 JUMP JUMPDEST PUSH2 0x632 JUMP JUMPDEST STOP JUMPDEST PUSH2 0x174 PUSH1 0x4 DUP1 CALLDATASIZE SUB DUP2 ADD SWAP1 PUSH2 0x16F SWAP2 SWAP1 PUSH2 0x1808 JUMP JUMPDEST PUSH2 0x67B JUMP JUMPDEST PUSH1 0x40 MLOAD PUSH2 0x181 SWAP2 SWAP1 PUSH2 0x1919 JUMP JUMPDEST PUSH1 0x40 MLOAD DUP1 SWAP2 SUB SWAP1 RETURN JUMPDEST PUSH2 0x192 PUSH2 0x88A JUMP JUMPDEST PUSH1 0x40 MLOAD PUSH2 0x19F SWAP2 SWAP1 PUSH2 0x195C JUMP JUMPDEST PUSH1 0x40 MLOAD DUP1 SWAP2 SUB SWAP1 RETURN JUMPDEST PUSH2 0x1C2 PUSH1 0x4 DUP1 CALLDATASIZE SUB DUP2 ADD SWAP1 PUSH2 0x1BD SWAP2 SWAP1 PUSH2 0x19D2 JUMP JUMPDEST PUSH2 0x8AE JUMP JUMPDEST STOP JUMPDEST PUSH2 0x1CC PUSH2 0xE0C JUMP JUMPDEST STOP JUMPDEST PUSH2 0x1D6 PUSH2 0xE20 JUMP JUMPDEST PUSH1 0x40 MLOAD PUSH2 0x1E3 SWAP2 SWAP1 PUSH2 0x17B3 JUMP JUMPDEST PUSH1 0x40 MLOAD DUP1 SWAP2 SUB SWAP1 RETURN JUMPDEST PUSH2 0x1F4 PUSH2 0xE26 JUMP JUMPDEST PUSH1 0x40 MLOAD PUSH2 0x201 SWAP2 SWAP1 PUSH2 0x1A81 JUMP JUMPDEST PUSH1 0x40 MLOAD DUP1 SWAP2 SUB SWAP1 RETURN JUMPDEST PUSH2 0x224 PUSH1 0x4 DUP1 CALLDATASIZE SUB DUP2 ADD SWAP1 PUSH2 0x21F SWAP2 SWAP1 PUSH2 0x14E5 JUMP JUMPDEST PUSH2 0xE4F JUMP JUMPDEST PUSH1 0x40 MLOAD PUSH2 0x235 SWAP6 SWAP5 SWAP4 SWAP3 SWAP2 SWAP1 PUSH2 0x1CED JUMP JUMPDEST PUSH1 0x40 MLOAD DUP1 SWAP2 SUB SWAP1 RETURN JUMPDEST PUSH2 0x246 PUSH2 0x1055 JUMP JUMPDEST PUSH1 0x40 MLOAD PUSH2 0x253 SWAP2 SWAP1 PUSH2 0x17B3 JUMP JUMPDEST PUSH1 0x40 MLOAD DUP1 SWAP2 SUB SWAP1 RETURN JUMPDEST PUSH2 0x276 PUSH1 0x4 DUP1 CALLDATASIZE SUB DUP2 ADD SWAP1 PUSH2 0x271 SWAP2 SWAP1 PUSH2 0x1D7A JUMP JUMPDEST PUSH2 0x105B JUMP JUMPDEST STOP JUMPDEST PUSH1 0x0 PUSH1 0x3 PUSH1 0x0 DUP4 DUP2 MSTORE PUSH1 0x20 ADD SWAP1 DUP2 MSTORE PUSH1 0x20 ADD PUSH1 0x0 KECCAK256 SWAP1 POP DUP1 PUSH1 0x6 ADD PUSH1 0x8 SWAP1 SLOAD SWAP1 PUSH2 0x100 EXP SWAP1 DIV PUSH1 0xFF AND ISZERO PUSH2 0x2E1 JUMPI PUSH1 0x40 MLOAD PUSH32 0x8C379A000000000000000000000000000000000000000000000000000000000 DUP2 MSTORE PUSH1 0x4 ADD PUSH2 0x2D8 SWAP1 PUSH2 0x1DF3 JUMP JUMPDEST PUSH1 0x40 MLOAD DUP1 SWAP2 SUB SWAP1 REVERT JUMPDEST DUP1 PUSH1 0x6 ADD PUSH1 0x0 SWAP1 SLOAD SWAP1 PUSH2 0x100 EXP SWAP1 DIV PUSH8 0xFFFFFFFFFFFFFFFF AND PUSH8 0xFFFFFFFFFFFFFFFF AND TIMESTAMP LT ISZERO PUSH2 0x346 JUMPI PUSH1 0x40 MLOAD PUSH32 0x8C379A000000000000000000000000000000000000000000000000000000000 DUP2 MSTORE PUSH1 0x4 ADD PUSH2 0x33D SWAP1 PUSH2 0x1E5F JUMP JUMPDEST PUSH1 0x40 MLOAD DUP1 SWAP2 SUB SWAP1 REVERT JUMPDEST PUSH1 0x1 DUP2 PUSH1 0x6 ADD PUSH1 0x8 PUSH2 0x100 EXP DUP2 SLOAD DUP2 PUSH1 0xFF MUL NOT AND SWAP1 DUP4 ISZERO ISZERO MUL OR SWAP1 SSTORE POP PUSH1 0x0 PUSH1 0xFF SWAP1 POP PUSH1 0x0 DUP1 JUMPDEST DUP4 PUSH1 0x3 ADD DUP1 SLOAD SWAP1 POP DUP2 PUSH1 0xFF AND LT ISZERO PUSH2 0x3CE JUMPI PUSH1 0x0 DUP5 PUSH1 0x4 ADD PUSH1 0x0 DUP4 PUSH1 0xFF AND DUP2 MSTORE PUSH1 0x20 ADD SWAP1 DUP2 MSTORE PUSH1 0x20 ADD PUSH1 0x0 KECCAK256 SLOAD SWAP1 POP DUP3 DUP2 GT ISZERO PUSH2 0x3AF JUMPI DUP1 SWAP3 POP DUP2 SWAP4 POP PUSH2 0x3BC JUMP JUMPDEST DUP3 DUP2 SUB PUSH2 0x3BB JUMPI PUSH1 0xFF SWAP4 POP JUMPDEST JUMPDEST POP DUP1 PUSH2 0x3C7 SWAP1 PUSH2 0x1EAE JUMP JUMPDEST SWAP1 POP PUSH2 0x36D JUMP JUMPDEST POP DUP4 PUSH32 0x72B5CE25E9823E74D98ED37F5CE167C0ED7E8728DD1D45326EE475B9AC9BA427 DUP4 PUSH1 0x40 MLOAD PUSH2 0x3FF SWAP2 SWAP1 PUSH2 0x1EE6 JUMP JUMPDEST PUSH1 0x40 MLOAD DUP1 SWAP2 SUB SWAP1 LOG2 POP POP POP POP JUMP JUMPDEST PUSH32 0x0 DUP2 JUMP JUMPDEST PUSH1 0x0 PUSH2 0x43B PUSH2 0x10E1 JUMP JUMPDEST PUSH1 0x2 DUP5 DUP5 SWAP1 POP LT ISZERO PUSH2 0x482 JUMPI PUSH1 0x40 MLOAD PUSH32 0x8C379A000000000000000000000000000000000000000000000000000000000 DUP2 MSTORE PUSH1 0x4 ADD PUSH2 0x479 SWAP1 PUSH2 0x1F4D JUMP JUMPDEST PUSH1 0x40 MLOAD DUP1 SWAP2 SUB SWAP1 REVERT JUMPDEST PUSH1 0x2 PUSH1 0x0 DUP2 SLOAD PUSH2 0x491 SWAP1 PUSH2 0x1F6D JUMP JUMPDEST SWAP2 SWAP1 POP DUP2 SWAP1 SSTORE SWAP1 POP PUSH1 0x0 PUSH1 0x3 PUSH1 0x0 DUP4 DUP2 MSTORE PUSH1 0x20 ADD SWAP1 DUP2 MSTORE PUSH1 0x20 ADD PUSH1 0x0 KECCAK256 SWAP1 POP DUP10 DUP10 DUP3 PUSH1 0x0 ADD SWAP2 DUP3 PUSH2 0x4C3 SWAP3 SWAP2 SWAP1 PUSH2 0x21F1 JUMP JUMPDEST POP DUP8 DUP8 DUP3 PUSH1 0x1 ADD SWAP2 DUP3 PUSH2 0x4D7 SWAP3 SWAP2 SWAP1 PUSH2 0x21F1 JUMP JUMPDEST POP DUP6 DUP2 PUSH1 0x2 ADD PUSH1 0x0 PUSH2 0x100 EXP DUP2 SLOAD DUP2 PUSH1 0xFF MUL NOT AND SWAP1 DUP4 PUSH1 0x1 DUP2 GT ISZERO PUSH2 0x4FF JUMPI PUSH2 0x4FE PUSH2 0x1B2C JUMP JUMPDEST JUMPDEST MUL OR SWAP1 SSTORE POP DUP1 PUSH1 0x3 ADD PUSH1 0x0 PUSH2 0x514 SWAP2 SWAP1 PUSH2 0x1403 JUMP JUMPDEST PUSH1 0x0 JUMPDEST DUP6 DUP6 SWAP1 POP DUP2 LT ISZERO PUSH2 0x592 JUMPI DUP2 PUSH1 0x3 ADD DUP7 DUP7 DUP4 DUP2 DUP2 LT PUSH2 0x539 JUMPI PUSH2 0x538 PUSH2 0x22C1 JUMP JUMPDEST JUMPDEST SWAP1 POP PUSH1 0x20 MUL DUP2 ADD SWAP1 PUSH2 0x54B SWAP2 SWAP1 PUSH2 0x22FF JUMP JUMPDEST SWAP1 SWAP2 DUP1 PUSH1 0x1 DUP2 SLOAD ADD DUP1 DUP3 SSTORE DUP1 SWAP2 POP POP PUSH1 0x1 SWAP1 SUB SWAP1 PUSH1 0x0 MSTORE PUSH1 0x20 PUSH1 0x0 KECCAK256 ADD PUSH1 0x0 SWAP1 SWAP2 SWAP3 SWAP1 SWAP2 SWAP3 SWAP1 SWAP2 SWAP3 SWAP1 SWAP2 SWAP3 POP SWAP2 DUP3 PUSH2 0x584 SWAP3 SWAP2 SWAP1 PUSH2 0x21F1 JUMP JUMPDEST POP DUP1 DUP1 PUSH1 0x1 ADD SWAP2 POP POP PUSH2 0x517 JUMP JUMPDEST POP DUP3 PUSH4 0xFFFFFFFF AND TIMESTAMP PUSH2 0x5A5 SWAP2 SWAP1 PUSH2 0x2362 JUMP JUMPDEST DUP2 PUSH1 0x6 ADD PUSH1 0x0 PUSH2 0x100 EXP DUP2 SLOAD DUP2 PUSH8 0xFFFFFFFFFFFFFFFF MUL NOT AND SWAP1 DUP4 PUSH8 0xFFFFFFFFFFFFFFFF AND MUL OR SWAP1 SSTORE POP DUP2 PUSH32 0x6F20A81EB0AACAF8EE50C24F6AF2659E67742060A556DBFE8B5F30A833371DAA DUP8 DUP13 DUP13 DUP6 PUSH1 0x6 ADD PUSH1 0x0 SWAP1 SLOAD SWAP1 PUSH2 0x100 EXP SWAP1 DIV PUSH8 0xFFFFFFFFFFFFFFFF AND PUSH1 0x40 MLOAD PUSH2 0x61D SWAP5 SWAP4 SWAP3 SWAP2 SWAP1 PUSH2 0x23DA JUMP JUMPDEST PUSH1 0x40 MLOAD DUP1 SWAP2 SUB SWAP1 LOG2 POP SWAP9 SWAP8 POP POP POP POP POP POP POP POP JUMP JUMPDEST PUSH2 0x63A PUSH2 0x10E1 JUMP JUMPDEST DUP1 PUSH1 0x1 DUP2 SWAP1 SSTORE POP PUSH32 0xA983C43A31D5106526385DBCECC40FB9547EEFB4B0F7D2E43B5FC71448DC8C09 DUP2 PUSH1 0x40 MLOAD PUSH2 0x670 SWAP2 SWAP1 PUSH2 0x17B3 JUMP JUMPDEST PUSH1 0x40 MLOAD DUP1 SWAP2 SUB SWAP1 LOG1 POP JUMP JUMPDEST PUSH1 0x60 PUSH1 0x0 PUSH1 0x3 PUSH1 0x0 DUP7 DUP2 MSTORE PUSH1 0x20 ADD SWAP1 DUP2 MSTORE PUSH1 0x20 ADD PUSH1 0x0 KECCAK256 SWAP1 POP PUSH1 0x0 DUP2 PUSH1 0x3 ADD DUP1 SLOAD SWAP1 POP SWAP1 POP DUP1 PUSH2 0xFFFF AND DUP6 PUSH2 0xFFFF AND LT PUSH2 0x6EA JUMPI PUSH1 0x40 MLOAD PUSH32 0x8C379A000000000000000000000000000000000000000000000000000000000 DUP2 MSTORE PUSH1 0x4 ADD PUSH2 0x6E1 SWAP1 PUSH2 0x2466 JUMP JUMPDEST PUSH1 0x40 MLOAD DUP1 SWAP2 SUB SWAP1 REVERT JUMPDEST PUSH1 0x0 DUP1 DUP6 PUSH2 0xFFFF AND EQ DUP1 PUSH2 0x710 JUMPI POP DUP2 PUSH2 0xFFFF AND DUP6 DUP8 PUSH2 0x70A SWAP2 SWAP1 PUSH2 0x2486 JUMP JUMPDEST PUSH2 0xFFFF AND GT JUMPDEST DUP1 PUSH2 0x72D JUMPI POP DUP6 PUSH2 0xFFFF AND DUP6 DUP8 PUSH2 0x727 SWAP2 SWAP1 PUSH2 0x2486 JUMP JUMPDEST PUSH2 0xFFFF AND LT JUMPDEST PUSH2 0x742 JUMPI DUP5 DUP7 PUSH2 0x73D SWAP2 SWAP1 PUSH2 0x2486 JUMP JUMPDEST PUSH2 0x744 JUMP JUMPDEST DUP2 JUMPDEST SWAP1 POP DUP1 PUSH2 0xFFFF AND DUP7 PUSH2 0xFFFF AND LT ISZERO DUP1 ISZERO PUSH2 0x762 JUMPI POP PUSH1 0x0 DUP3 PUSH2 0xFFFF AND GT JUMPDEST ISZERO PUSH2 0x7BB JUMPI PUSH1 0x0 PUSH8 0xFFFFFFFFFFFFFFFF DUP2 GT ISZERO PUSH2 0x782 JUMPI PUSH2 0x781 PUSH2 0x1FC0 JUMP JUMPDEST JUMPDEST PUSH1 0x40 MLOAD SWAP1 DUP1 DUP3 MSTORE DUP1 PUSH1 0x20 MUL PUSH1 0x20 ADD DUP3 ADD PUSH1 0x40 MSTORE DUP1 ISZERO PUSH2 0x7B0 JUMPI DUP2 PUSH1 0x20 ADD PUSH1 0x20 DUP3 MUL DUP1 CALLDATASIZE DUP4 CALLDATACOPY DUP1 DUP3 ADD SWAP2 POP POP SWAP1 POP JUMPDEST POP SWAP4 POP POP POP POP PUSH2 0x883 JUMP JUMPDEST DUP6 DUP2 PUSH2 0x7C7 SWAP2 SWAP1 PUSH2 0x24BC JUMP JUMPDEST PUSH2 0xFFFF AND PUSH8 0xFFFFFFFFFFFFFFFF DUP2 GT ISZERO PUSH2 0x7E4 JUMPI PUSH2 0x7E3 PUSH2 0x1FC0 JUMP JUMPDEST JUMPDEST PUSH1 0x40 MLOAD SWAP1 DUP1 DUP3 MSTORE DUP1 PUSH1 0x20 MUL PUSH1 0x20 ADD DUP3 ADD PUSH1 0x40 MSTORE DUP1 ISZERO PUSH2 0x812 JUMPI DUP2 PUSH1 0x20 ADD PUSH1 0x20 DUP3 MUL DUP1 CALLDATASIZE DUP4 CALLDATACOPY DUP1 DUP3 ADD SWAP2 POP POP SWAP1 POP JUMPDEST POP SWAP4 POP PUSH1 0x0 DUP7 SWAP1 POP JUMPDEST DUP2 PUSH2 0xFFFF AND DUP2 PUSH2 0xFFFF AND LT ISZERO PUSH2 0x87E JUMPI DUP4 PUSH1 0x4 ADD PUSH1 0x0 DUP3 PUSH2 0xFFFF AND DUP2 MSTORE PUSH1 0x20 ADD SWAP1 DUP2 MSTORE PUSH1 0x20 ADD PUSH1 0x0 KECCAK256 SLOAD DUP6 DUP9 DUP4 PUSH2 0x852 SWAP2 SWAP1 PUSH2 0x24BC JUMP JUMPDEST PUSH2 0xFFFF AND DUP2 MLOAD DUP2 LT PUSH2 0x867 JUMPI PUSH2 0x866 PUSH2 0x22C1 JUMP JUMPDEST JUMPDEST PUSH1 0x20 MUL PUSH1 0x20 ADD ADD DUP2 DUP2 MSTORE POP POP DUP1 PUSH1 0x1 ADD SWAP1 POP PUSH2 0x81B JUMP JUMPDEST POP POP POP POP JUMPDEST SWAP4 SWAP3 POP POP POP JUMP JUMPDEST PUSH32 0x0 DUP2 JUMP JUMPDEST PUSH1 0x0 PUSH1 0x3 PUSH1 0x0 DUP9 DUP2 MSTORE PUSH1 0x20 ADD SWAP1 DUP2 MSTORE PUSH1 0x20 ADD PUSH1 0x0 KECCAK256 SWAP1 POP DUP1 PUSH1 0x6 ADD PUSH1 0x0 SWAP1 SLOAD SWAP1 PUSH2 0x100 EXP SWAP1 DIV PUSH8 0xFFFFFFFFFFFFFFFF AND PUSH8 0xFFFFFFFFFFFFFFFF AND TIMESTAMP LT PUSH2 0x929 JUMPI PUSH1 0x40 MLOAD PUSH32 0x8C379A000000000000000000000000000000000000000000000000000000000 DUP2 MSTORE PUSH1 0x4 ADD PUSH2 0x920 SWAP1 PUSH2 0x253E JUMP JUMPDEST PUSH1 0x40 MLOAD DUP1 SWAP2 SUB SWAP1 REVERT JUMPDEST DUP1 PUSH1 0x3 ADD DUP1 SLOAD SWAP1 POP DUP7 PUSH1 0xFF AND LT PUSH2 0x975 JUMPI PUSH1 0x40 MLOAD PUSH32 0x8C379A000000000000000000000000000000000000000000000000000000000 DUP2 MSTORE PUSH1 0x4 ADD PUSH2 0x96C SWAP1 PUSH2 0x25AA JUMP JUMPDEST PUSH1 0x40 MLOAD DUP1 SWAP2 SUB SWAP1 REVERT JUMPDEST DUP1 PUSH1 0x5 ADD PUSH1 0x0 DUP6 DUP2 MSTORE PUSH1 0x20 ADD SWAP1 DUP2 MSTORE PUSH1 0x20 ADD PUSH1 0x0 KECCAK256 PUSH1 0x0 SWAP1 SLOAD SWAP1 PUSH2 0x100 EXP SWAP1 DIV PUSH1 0xFF AND ISZERO PUSH2 0x9D8 JUMPI PUSH1 0x40 MLOAD PUSH32 0x8C379A000000000000000000000000000000000000000000000000000000000 DUP2 MSTORE PUSH1 0x4 ADD PUSH2 0x9CF SWAP1 PUSH2 0x2616 JUMP JUMPDEST PUSH1 0x40 MLOAD DUP1 SWAP2 SUB SWAP1 REVERT JUMPDEST PUSH1 0x1 SLOAD DUP4 EQ PUSH2 0xA1C JUMPI PUSH1 0x40 MLOAD PUSH32 0x8C379A000000000000000000000000000000000000000000000000000000000 DUP2 MSTORE PUSH1 0x4 ADD PUSH2 0xA13 SWAP1 PUSH2 0x2682 JUMP JUMPDEST PUSH1 0x40 MLOAD DUP1 SWAP2 SUB SWAP1 REVERT JUMPDEST PUSH1 0x0 PUSH2 0xA2A DUP8 PUSH1 0xFF AND PUSH2 0x1168 JUMP JUMPDEST PUSH1 0x40 MLOAD PUSH1 0x20 ADD PUSH2 0xA3A SWAP2 SWAP1 PUSH2 0x272A JUMP JUMPDEST PUSH1 0x40 MLOAD PUSH1 0x20 DUP2 DUP4 SUB SUB DUP2 MSTORE SWAP1 PUSH1 0x40 MSTORE DUP1 MLOAD SWAP1 PUSH1 0x20 ADD KECCAK256 SWAP1 POP DUP1 PUSH1 0x0 SHR DUP7 EQ PUSH2 0xA97 JUMPI PUSH1 0x40 MLOAD PUSH32 0x8C379A000000000000000000000000000000000000000000000000000000000 DUP2 MSTORE PUSH1 0x4 ADD PUSH2 0xA8E SWAP1 PUSH2 0x2798 JUMP JUMPDEST PUSH1 0x40 MLOAD DUP1 SWAP2 SUB SWAP1 REVERT JUMPDEST PUSH1 0x0 PUSH1 0x40 MLOAD DUP1 PUSH1 0x80 ADD PUSH1 0x40 MSTORE DUP1 DUP7 DUP2 MSTORE PUSH1 0x20 ADD DUP8 DUP2 MSTORE PUSH1 0x20 ADD DUP9 DUP2 MSTORE PUSH1 0x20 ADD DUP11 DUP2 MSTORE POP SWAP1 POP PUSH1 0x0 PUSH32 0x0 PUSH20 0xFFFFFFFFFFFFFFFFFFFFFFFFFFFFFFFFFFFFFFFF AND PUSH4 0x23572511 DUP7 DUP5 PUSH1 0x40 MLOAD DUP4 PUSH4 0xFFFFFFFF AND PUSH1 0xE0 SHL DUP2 MSTORE PUSH1 0x4 ADD PUSH2 0xB19 SWAP3 SWAP2 SWAP1 PUSH2 0x2856 JUMP JUMPDEST PUSH1 0x20 PUSH1 0x40 MLOAD DUP1 DUP4 SUB DUP2 DUP7 GAS STATICCALL ISZERO DUP1 ISZERO PUSH2 0xB36 JUMPI RETURNDATASIZE PUSH1 0x0 DUP1 RETURNDATACOPY RETURNDATASIZE PUSH1 0x0 REVERT JUMPDEST POP POP POP POP PUSH1 0x40 MLOAD RETURNDATASIZE PUSH1 0x1F NOT PUSH1 0x1F DUP3 ADD AND DUP3 ADD DUP1 PUSH1 0x40 MSTORE POP DUP2 ADD SWAP1 PUSH2 0xB5A SWAP2 SWAP1 PUSH2 0x28AD JUMP JUMPDEST SWAP1 POP DUP1 PUSH2 0xB9C JUMPI PUSH1 0x40 MLOAD PUSH32 0x8C379A000000000000000000000000000000000000000000000000000000000 DUP2 MSTORE PUSH1 0x4 ADD PUSH2 0xB93 SWAP1 PUSH2 0x2926 JUMP JUMPDEST PUSH1 0x40 MLOAD DUP1 SWAP2 SUB SWAP1 REVERT JUMPDEST DUP10 PUSH32 0x80E303D0AAD176107B4CE4F8C65DC7F16DF914F319BAD37D18F35C02F0A597DB DUP8 DUP10 DUP12 PUSH1 0x40 MLOAD PUSH2 0xBD0 SWAP4 SWAP3 SWAP2 SWAP1 PUSH2 0x2946 JUMP JUMPDEST PUSH1 0x40 MLOAD DUP1 SWAP2 SUB SWAP1 LOG2 PUSH1 0x1 DUP5 PUSH1 0x5 ADD PUSH1 0x0 DUP10 DUP2 MSTORE PUSH1 0x20 ADD SWAP1 DUP2 MSTORE PUSH1 0x20 ADD PUSH1 0x0 KECCAK256 PUSH1 0x0 PUSH2 0x100 EXP DUP2 SLOAD DUP2 PUSH1 0xFF MUL NOT AND SWAP1 DUP4 ISZERO ISZERO MUL OR SWAP1 SSTORE POP PUSH1 0x0 PUSH1 0x1 SWAP1 POP PUSH1 0x1 DUP1 DUP2 GT ISZERO PUSH2 0xC1F JUMPI PUSH2 0xC1E PUSH2 0x1B2C JUMP JUMPDEST JUMPDEST DUP6 PUSH1 0x2 ADD PUSH1 0x0 SWAP1 SLOAD SWAP1 PUSH2 0x100 EXP SWAP1 DIV PUSH1 0xFF AND PUSH1 0x1 DUP2 GT ISZERO PUSH2 0xC43 JUMPI PUSH2 0xC42 PUSH2 0x1B2C JUMP JUMPDEST JUMPDEST EQ DUP1 ISZERO PUSH2 0xC9D JUMPI POP PUSH1 0x0 PUSH20 0xFFFFFFFFFFFFFFFFFFFFFFFFFFFFFFFFFFFFFFFF AND PUSH32 0x0 PUSH20 0xFFFFFFFFFFFFFFFFFFFFFFFFFFFFFFFFFFFFFFFF AND EQ ISZERO JUMPDEST ISZERO PUSH2 0xD4D JUMPI PUSH1 0x0 PUSH32 0x0 PUSH20 0xFFFFFFFFFFFFFFFFFFFFFFFFFFFFFFFFFFFFFFFF AND PUSH4 0x9AB24EB0 CALLER PUSH1 0x40 MLOAD DUP3 PUSH4 0xFFFFFFFF AND PUSH1 0xE0 SHL DUP2 MSTORE PUSH1 0x4 ADD PUSH2 0xCFD SWAP2 SWAP1 PUSH2 0x1A81 JUMP JUMPDEST PUSH1 0x20 PUSH1 0x40 MLOAD DUP1 DUP4 SUB DUP2 DUP7 GAS STATICCALL ISZERO DUP1 ISZERO PUSH2 0xD1A JUMPI RETURNDATASIZE PUSH1 0x0 DUP1 RETURNDATACOPY RETURNDATASIZE PUSH1 0x0 REVERT JUMPDEST POP POP POP POP PUSH1 0x40 MLOAD RETURNDATASIZE PUSH1 0x1F NOT PUSH1 0x1F DUP3 ADD AND DUP3 ADD DUP1 PUSH1 0x40 MSTORE POP DUP2 ADD SWAP1 PUSH2 0xD3E SWAP2 SWAP1 PUSH2 0x2992 JUMP JUMPDEST SWAP1 POP PUSH2 0xD49 DUP2 PUSH2 0x12C8 JUMP JUMPDEST SWAP2 POP POP JUMPDEST DUP1 DUP6 PUSH1 0x4 ADD PUSH1 0x0 DUP13 PUSH1 0xFF AND DUP2 MSTORE PUSH1 0x20 ADD SWAP1 DUP2 MSTORE PUSH1 0x20 ADD PUSH1 0x0 KECCAK256 PUSH1 0x0 DUP3 DUP3 SLOAD ADD SWAP3 POP POP DUP2 SWAP1 SSTORE POP DUP11 PUSH32 0x56BD80D53A258D2249BAB33821AD5288CC0C2B3D17B5CE7C41C7D67BBCC2982A DUP12 DUP11 DUP5 PUSH1 0x40 MLOAD PUSH2 0xDA7 SWAP4 SWAP3 SWAP2 SWAP1 PUSH2 0x29BF JUMP JUMPDEST PUSH1 0x40 MLOAD DUP1 SWAP2 SUB SWAP1 LOG2 DUP5 PUSH1 0x6 ADD PUSH1 0x0 SWAP1 SLOAD SWAP1 PUSH2 0x100 EXP SWAP1 DIV PUSH8 0xFFFFFFFFFFFFFFFF AND PUSH8 0xFFFFFFFFFFFFFFFF AND TIMESTAMP LT ISZERO DUP1 ISZERO PUSH2 0xDF0 JUMPI POP DUP5 PUSH1 0x6 ADD PUSH1 0x8 SWAP1 SLOAD SWAP1 PUSH2 0x100 EXP SWAP1 DIV PUSH1 0xFF AND ISZERO JUMPDEST ISZERO PUSH2 0xDFF JUMPI PUSH2 0xDFE DUP12 PUSH2 0x278 JUMP JUMPDEST JUMPDEST POP POP POP POP POP POP POP POP POP POP POP JUMP JUMPDEST PUSH2 0xE14 PUSH2 0x10E1 JUMP JUMPDEST PUSH2 0xE1E PUSH1 0x0 PUSH2 0x1337 JUMP JUMPDEST JUMP JUMPDEST PUSH1 0x1 SLOAD DUP2 JUMP JUMPDEST PUSH1 0x0 DUP1 PUSH1 0x0 SWAP1 SLOAD SWAP1 PUSH2 0x100 EXP SWAP1 DIV PUSH20 0xFFFFFFFFFFFFFFFFFFFFFFFFFFFFFFFFFFFFFFFF AND SWAP1 POP SWAP1 JUMP JUMPDEST PUSH1 0x60 PUSH1 0x0 DUP1 PUSH1 0x0 PUSH1 0x60 PUSH1 0x0 PUSH1 0x3 PUSH1 0x0 DUP9 DUP2 MSTORE PUSH1 0x20 ADD SWAP1 DUP2 MSTORE PUSH1 0x20 ADD PUSH1 0x0 KECCAK256 SWAP1 POP DUP1 PUSH1 0x0 ADD DUP2 PUSH1 0x2 ADD PUSH1 0x0 SWAP1 SLOAD SWAP1 PUSH2 0x100 EXP SWAP1 DIV PUSH1 0xFF AND DUP3 PUSH1 0x6 ADD PUSH1 0x8 SWAP1 SLOAD SWAP1 PUSH2 0x100 EXP SWAP1 DIV PUSH1 0xFF AND ISZERO DUP1 ISZERO PUSH2 0xEC5 JUMPI POP DUP3 PUSH1 0x6 ADD PUSH1 0x0 SWAP1 SLOAD SWAP1 PUSH2 0x100 EXP SWAP1 DIV PUSH8 0xFFFFFFFFFFFFFFFF AND PUSH8 0xFFFFFFFFFFFFFFFF AND TIMESTAMP LT JUMPDEST DUP4 PUSH1 0x6 ADD PUSH1 0x0 SWAP1 SLOAD SWAP1 PUSH2 0x100 EXP SWAP1 DIV PUSH8 0xFFFFFFFFFFFFFFFF AND DUP5 PUSH1 0x3 ADD DUP5 DUP1 SLOAD PUSH2 0xEEE SWAP1 PUSH2 0x201E JUMP JUMPDEST DUP1 PUSH1 0x1F ADD PUSH1 0x20 DUP1 SWAP2 DIV MUL PUSH1 0x20 ADD PUSH1 0x40 MLOAD SWAP1 DUP2 ADD PUSH1 0x40 MSTORE DUP1 SWAP3 SWAP2 SWAP1 DUP2 DUP2 MSTORE PUSH1 0x20 ADD DUP3 DUP1 SLOAD PUSH2 0xF1A SWAP1 PUSH2 0x201E JUMP JUMPDEST DUP1 ISZERO PUSH2 0xF67 JUMPI DUP1 PUSH1 0x1F LT PUSH2 0xF3C JUMPI PUSH2 0x100 DUP1 DUP4 SLOAD DIV MUL DUP4 MSTORE SWAP2 PUSH1 0x20 ADD SWAP2 PUSH2 0xF67 JUMP JUMPDEST DUP3 ADD SWAP2 SWAP1 PUSH1 0x0 MSTORE PUSH1 0x20 PUSH1 0x0 KECCAK256 SWAP1 JUMPDEST DUP2 SLOAD DUP2 MSTORE SWAP1 PUSH1 0x1 ADD SWAP1 PUSH1 0x20 ADD DUP1 DUP4 GT PUSH2 0xF4A JUMPI DUP3 SWAP1 SUB PUSH1 0x1F AND DUP3 ADD SWAP2 JUMPDEST POP POP POP POP POP SWAP5 POP DUP1 DUP1 SLOAD DUP1 PUSH1 0x20 MUL PUSH1 0x20 ADD PUSH1 0x40 MLOAD SWAP1 DUP2 ADD PUSH1 0x40 MSTORE DUP1 SWAP3 SWAP2 SWAP1 DUP2 DUP2 MSTORE PUSH1 0x20 ADD PUSH1 0x0 SWAP1 JUMPDEST DUP3 DUP3 LT ISZERO PUSH2 0x103B JUMPI DUP4 DUP3 SWAP1 PUSH1 0x0 MSTORE PUSH1 0x20 PUSH1 0x0 KECCAK256 ADD DUP1 SLOAD PUSH2 0xFAE SWAP1 PUSH2 0x201E JUMP JUMPDEST DUP1 PUSH1 0x1F ADD PUSH1 0x20 DUP1 SWAP2 DIV MUL PUSH1 0x20 ADD PUSH1 0x40 MLOAD SWAP1 DUP2 ADD PUSH1 0x40 MSTORE DUP1 SWAP3 SWAP2 SWAP1 DUP2 DUP2 MSTORE PUSH1 0x20 ADD DUP3 DUP1 SLOAD PUSH2 0xFDA SWAP1 PUSH2 0x201E JUMP JUMPDEST DUP1 ISZERO PUSH2 0x1027 JUMPI DUP1 PUSH1 0x1F LT PUSH2 0xFFC JUMPI PUSH2 0x100 DUP1 DUP4 SLOAD DIV MUL DUP4 MSTORE SWAP2 PUSH1 0x20 ADD SWAP2 PUSH2 0x1027 JUMP JUMPDEST DUP3 ADD SWAP2 SWAP1 PUSH1 0x0 MSTORE PUSH1 0x20 PUSH1 0x0 KECCAK256 SWAP1 JUMPDEST DUP2 SLOAD DUP2 MSTORE SWAP1 PUSH1 0x1 ADD SWAP1 PUSH1 0x20 ADD DUP1 DUP4 GT PUSH2 0x100A JUMPI DUP3 SWAP1 SUB PUSH1 0x1F AND DUP3 ADD SWAP2 JUMPDEST POP POP POP POP POP DUP2 MSTORE PUSH1 0x20 ADD SWAP1 PUSH1 0x1 ADD SWAP1 PUSH2 0xF8F JUMP JUMPDEST POP POP POP POP SWAP1 POP SWAP6 POP SWAP6 POP SWAP6 POP SWAP6 POP SWAP6 POP POP SWAP2 SWAP4 SWAP6 SWAP1 SWAP3 SWAP5 POP JUMP JUMPDEST PUSH1 0x2 SLOAD DUP2 JUMP JUMPDEST PUSH2 0x1063 PUSH2 0x10E1 JUMP JUMPDEST PUSH1 0x0 PUSH20 0xFFFFFFFFFFFFFFFFFFFFFFFFFFFFFFFFFFFFFFFF AND DUP2 PUSH20 0xFFFFFFFFFFFFFFFFFFFFFFFFFFFFFFFFFFFFFFFF AND SUB PUSH2 0x10D5 JUMPI PUSH1 0x0 PUSH1 0x40 MLOAD PUSH32 0x1E4FBDF700000000000000000000000000000000000000000000000000000000 DUP2 MSTORE PUSH1 0x4 ADD PUSH2 0x10CC SWAP2 SWAP1 PUSH2 0x1A81 JUMP JUMPDEST PUSH1 0x40 MLOAD DUP1 SWAP2 SUB SWAP1 REVERT JUMPDEST PUSH2 0x10DE DUP2 PUSH2 0x1337 JUMP JUMPDEST POP JUMP JUMPDEST PUSH2 0x10E9 PUSH2 0x13FB JUMP JUMPDEST PUSH20 0xFFFFFFFFFFFFFFFFFFFFFFFFFFFFFFFFFFFFFFFF AND PUSH2 0x1107 PUSH2 0xE26 JUMP JUMPDEST PUSH20 0xFFFFFFFFFFFFFFFFFFFFFFFFFFFFFFFFFFFFFFFF AND EQ PUSH2 0x1166 JUMPI PUSH2 0x112A PUSH2 0x13FB JUMP JUMPDEST PUSH1 0x40 MLOAD PUSH32 0x118CDAA700000000000000000000000000000000000000000000000000000000 DUP2 MSTORE PUSH1 0x4 ADD PUSH2 0x115D SWAP2 SWAP1 PUSH2 0x1A81 JUMP JUMPDEST PUSH1 0x40 MLOAD DUP1 SWAP2 SUB SWAP1 REVERT JUMPDEST JUMP JUMPDEST PUSH1 0x60 PUSH1 0x0 DUP3 SUB PUSH2 0x11AF JUMPI PUSH1 0x40 MLOAD DUP1 PUSH1 0x40 ADD PUSH1 0x40 MSTORE DUP1 PUSH1 0x1 DUP2 MSTORE PUSH1 0x20 ADD PUSH32 0x3000000000000000000000000000000000000000000000000000000000000000 DUP2 MSTORE POP SWAP1 POP PUSH2 0x12C3 JUMP JUMPDEST PUSH1 0x0 DUP3 SWAP1 POP PUSH1 0x0 JUMPDEST PUSH1 0x0 DUP3 EQ PUSH2 0x11E1 JUMPI DUP1 DUP1 PUSH2 0x11CA SWAP1 PUSH2 0x1F6D JUMP JUMPDEST SWAP2 POP POP PUSH1 0xA DUP3 PUSH2 0x11DA SWAP2 SWAP1 PUSH2 0x2A25 JUMP JUMPDEST SWAP2 POP PUSH2 0x11B7 JUMP JUMPDEST PUSH1 0x0 DUP2 PUSH8 0xFFFFFFFFFFFFFFFF DUP2 GT ISZERO PUSH2 0x11FD JUMPI PUSH2 0x11FC PUSH2 0x1FC0 JUMP JUMPDEST JUMPDEST PUSH1 0x40 MLOAD SWAP1 DUP1 DUP3 MSTORE DUP1 PUSH1 0x1F ADD PUSH1 0x1F NOT AND PUSH1 0x20 ADD DUP3 ADD PUSH1 0x40 MSTORE DUP1 ISZERO PUSH2 0x122F JUMPI DUP2 PUSH1 0x20 ADD PUSH1 0x1 DUP3 MUL DUP1 CALLDATASIZE DUP4 CALLDATACOPY DUP1 DUP3 ADD SWAP2 POP POP SWAP1 POP JUMPDEST POP SWAP1 POP JUMPDEST PUSH1 0x0 DUP6 EQ PUSH2 0x12BC JUMPI PUSH1 0x1 DUP3 PUSH2 0x1248 SWAP2 SWAP1 PUSH2 0x2A56 JUMP JUMPDEST SWAP2 POP PUSH1 0xA DUP6 PUSH2 0x1257 SWAP2 SWAP1 PUSH2 0x2A8A JUMP JUMPDEST PUSH1 0x30 PUSH2 0x1263 SWAP2 SWAP1 PUSH2 0x2ABB JUMP JUMPDEST PUSH1 0xF8 SHL DUP2 DUP4 DUP2 MLOAD DUP2 LT PUSH2 0x1279 JUMPI PUSH2 0x1278 PUSH2 0x22C1 JUMP JUMPDEST JUMPDEST PUSH1 0x20 ADD ADD SWAP1 PUSH31 0xFFFFFFFFFFFFFFFFFFFFFFFFFFFFFFFFFFFFFFFFFFFFFFFFFFFFFFFFFFFFFF NOT AND SWAP1 DUP2 PUSH1 0x0 BYTE SWAP1 MSTORE8 POP PUSH1 0xA DUP6 PUSH2 0x12B5 SWAP2 SWAP1 PUSH2 0x2A25 JUMP JUMPDEST SWAP5 POP PUSH2 0x1233 JUMP JUMPDEST DUP1 SWAP4 POP POP POP POP JUMPDEST SWAP2 SWAP1 POP JUMP JUMPDEST PUSH1 0x0 DUP1 DUP3 SUB PUSH2 0x12DA JUMPI PUSH1 0x0 SWAP1 POP PUSH2 0x1332 JUMP JUMPDEST PUSH1 0x0 PUSH1 0x2 PUSH1 0x1 DUP5 PUSH2 0x12EB SWAP2 SWAP1 PUSH2 0x2ABB JUMP JUMPDEST PUSH2 0x12F5 SWAP2 SWAP1 PUSH2 0x2A25 JUMP JUMPDEST SWAP1 POP DUP3 SWAP2 POP JUMPDEST DUP2 DUP2 LT ISZERO PUSH2 0x1330 JUMPI DUP1 SWAP2 POP PUSH1 0x2 DUP2 DUP3 DUP6 PUSH2 0x1315 SWAP2 SWAP1 PUSH2 0x2A25 JUMP JUMPDEST PUSH2 0x131F SWAP2 SWAP1 PUSH2 0x2ABB JUMP JUMPDEST PUSH2 0x1329 SWAP2 SWAP1 PUSH2 0x2A25 JUMP JUMPDEST SWAP1 POP PUSH2 0x12FB JUMP JUMPDEST POP JUMPDEST SWAP2 SWAP1 POP JUMP JUMPDEST PUSH1 0x0 DUP1 PUSH1 0x0 SWAP1 SLOAD SWAP1 PUSH2 0x100 EXP SWAP1 DIV PUSH20 0xFFFFFFFFFFFFFFFFFFFFFFFFFFFFFFFFFFFFFFFF AND SWAP1 POP DUP2 PUSH1 0x0 DUP1 PUSH2 0x100 EXP DUP2 SLOAD DUP2 PUSH20 0xFFFFFFFFFFFFFFFFFFFFFFFFFFFFFFFFFFFFFFFF MUL NOT AND SWAP1 DUP4 PUSH20 0xFFFFFFFFFFFFFFFFFFFFFFFFFFFFFFFFFFFFFFFF AND MUL OR SWAP1 SSTORE POP DUP2 PUSH20 0xFFFFFFFFFFFFFFFFFFFFFFFFFFFFFFFFFFFFFFFF AND DUP2 PUSH20 0xFFFFFFFFFFFFFFFFFFFFFFFFFFFFFFFFFFFFFFFF AND PUSH32 0x8BE0079C531659141344CD1FD0A4F28419497F9722A3DAAFE3B4186F6B6457E0 PUSH1 0x40 MLOAD PUSH1 0x40 MLOAD DUP1 SWAP2 SUB SWAP1 LOG3 POP POP JUMP JUMPDEST PUSH1 0x0 CALLER SWAP1 POP SWAP1 JUMP JUMPDEST POP DUP1 SLOAD PUSH1 0x0 DUP3 SSTORE SWAP1 PUSH1 0x0 MSTORE PUSH1 0x20 PUSH1 0x0 KECCAK256 SWAP1 DUP2 ADD SWAP1 PUSH2 0x1421 SWAP2 SWAP1 PUSH2 0x1424 JUMP JUMPDEST POP JUMP JUMPDEST JUMPDEST DUP1 DUP3 GT ISZERO PUSH2 0x1444 JUMPI PUSH1 0x0 DUP2 DUP2 PUSH2 0x143B SWAP2 SWAP1 PUSH2 0x1448 JUMP JUMPDEST POP PUSH1 0x1 ADD PUSH2 0x1425 JUMP JUMPDEST POP SWAP1 JUMP JUMPDEST POP DUP1 SLOAD PUSH2 0x1454 SWAP1 PUSH2 0x201E JUMP JUMPDEST PUSH1 0x0 DUP3 SSTORE DUP1 PUSH1 0x1F LT PUSH2 0x1466 JUMPI POP PUSH2 0x1485 JUMP JUMPDEST PUSH1 0x1F ADD PUSH1 0x20 SWAP1 DIV SWAP1 PUSH1 0x0 MSTORE PUSH1 0x20 PUSH1 0x0 KECCAK256 SWAP1 DUP2 ADD SWAP1 PUSH2 0x1484 SWAP2 SWAP1 PUSH2 0x1488 JUMP JUMPDEST JUMPDEST POP JUMP JUMPDEST JUMPDEST DUP1 DUP3 GT ISZERO PUSH2 0x14A1 JUMPI PUSH1 0x0 DUP2 PUSH1 0x0 SWAP1 SSTORE POP PUSH1 0x1 ADD PUSH2 0x1489 JUMP JUMPDEST POP SWAP1 JUMP JUMPDEST PUSH1 0x0 DUP1 REVERT JUMPDEST PUSH1 0x0 DUP1 REVERT JUMPDEST PUSH1 0x0 DUP2 SWAP1 POP SWAP2 SWAP1 POP JUMP JUMPDEST PUSH2 0x14C2 DUP2 PUSH2 0x14AF JUMP JUMPDEST DUP2 EQ PUSH2 0x14CD JUMPI PUSH1 0x0 DUP1 REVERT JUMPDEST POP JUMP JUMPDEST PUSH1 0x0 DUP2 CALLDATALOAD SWAP1 POP PUSH2 0x14DF DUP2 PUSH2 0x14B9 JUMP JUMPDEST SWAP3 SWAP2 POP POP JUMP JUMPDEST PUSH1 0x0 PUSH1 0x20 DUP3 DUP5 SUB SLT ISZERO PUSH2 0x14FB JUMPI PUSH2 0x14FA PUSH2 0x14A5 JUMP JUMPDEST JUMPDEST PUSH1 0x0 PUSH2 0x1509 DUP5 DUP3 DUP6 ADD PUSH2 0x14D0 JUMP JUMPDEST SWAP2 POP POP SWAP3 SWAP2 POP POP JUMP JUMPDEST PUSH1 0x0 PUSH20 0xFFFFFFFFFFFFFFFFFFFFFFFFFFFFFFFFFFFFFFFF DUP3 AND SWAP1 POP SWAP2 SWAP1 POP JUMP JUMPDEST PUSH1 0x0 DUP2 SWAP1 POP SWAP2 SWAP1 POP JUMP JUMPDEST PUSH1 0x0 PUSH2 0x1557 PUSH2 0x1552 PUSH2 0x154D DUP5 PUSH2 0x1512 JUMP JUMPDEST PUSH2 0x1532 JUMP JUMPDEST PUSH2 0x1512 JUMP JUMPDEST SWAP1 POP SWAP2 SWAP1 POP JUMP JUMPDEST PUSH1 0x0 PUSH2 0x1569 DUP3 PUSH2 0x153C JUMP JUMPDEST SWAP1 POP SWAP2 SWAP1 POP JUMP JUMPDEST PUSH1 0x0 PUSH2 0x157B DUP3 PUSH2 0x155E JUMP JUMPDEST SWAP1 POP SWAP2 SWAP1 POP JUMP JUMPDEST PUSH2 0x158B DUP2 PUSH2 0x1570 JUMP JUMPDEST DUP3 MSTORE POP POP JUMP JUMPDEST PUSH1 0x0 PUSH1 0x20 DUP3 ADD SWAP1 POP PUSH2 0x15A6 PUSH1 0x0 DUP4 ADD DUP5 PUSH2 0x1582 JUMP JUMPDEST SWAP3 SWAP2 POP POP JUMP JUMPDEST PUSH1 0x0 DUP1 REVERT JUMPDEST PUSH1 0x0 DUP1 REVERT JUMPDEST PUSH1 0x0 DUP1 REVERT JUMPDEST PUSH1 0x0 DUP1 DUP4 PUSH1 0x1F DUP5 ADD SLT PUSH2 0x15D1 JUMPI PUSH2 0x15D0 PUSH2 0x15AC JUMP JUMPDEST JUMPDEST DUP3 CALLDATALOAD SWAP1 POP PUSH8 0xFFFFFFFFFFFFFFFF DUP2 GT ISZERO PUSH2 0x15EE JUMPI PUSH2 0x15ED PUSH2 0x15B1 JUMP JUMPDEST JUMPDEST PUSH1 0x20 DUP4 ADD SWAP2 POP DUP4 PUSH1 0x1 DUP3 MUL DUP4 ADD GT ISZERO PUSH2 0x160A JUMPI PUSH2 0x1609 PUSH2 0x15B6 JUMP JUMPDEST JUMPDEST SWAP3 POP SWAP3 SWAP1 POP JUMP JUMPDEST PUSH1 0x2 DUP2 LT PUSH2 0x161E JUMPI PUSH1 0x0 DUP1 REVERT JUMPDEST POP JUMP JUMPDEST PUSH1 0x0 DUP2 CALLDATALOAD SWAP1 POP PUSH2 0x1630 DUP2 PUSH2 0x1611 JUMP JUMPDEST SWAP3 SWAP2 POP POP JUMP JUMPDEST PUSH1 0x0 DUP1 DUP4 PUSH1 0x1F DUP5 ADD SLT PUSH2 0x164C JUMPI PUSH2 0x164B PUSH2 0x15AC JUMP JUMPDEST JUMPDEST DUP3 CALLDATALOAD SWAP1 POP PUSH8 0xFFFFFFFFFFFFFFFF DUP2 GT ISZERO PUSH2 0x1669 JUMPI PUSH2 0x1668 PUSH2 0x15B1 JUMP JUMPDEST JUMPDEST PUSH1 0x20 DUP4 ADD SWAP2 POP DUP4 PUSH1 0x20 DUP3 MUL DUP4 ADD GT ISZERO PUSH2 0x1685 JUMPI PUSH2 0x1684 PUSH2 0x15B6 JUMP JUMPDEST JUMPDEST SWAP3 POP SWAP3 SWAP1 POP JUMP JUMPDEST PUSH1 0x0 PUSH4 0xFFFFFFFF DUP3 AND SWAP1 POP SWAP2 SWAP1 POP JUMP JUMPDEST PUSH2 0x16A5 DUP2 PUSH2 0x168C JUMP JUMPDEST DUP2 EQ PUSH2 0x16B0 JUMPI PUSH1 0x0 DUP1 REVERT JUMPDEST POP JUMP JUMPDEST PUSH1 0x0 DUP2 CALLDATALOAD SWAP1 POP PUSH2 0x16C2 DUP2 PUSH2 0x169C JUMP JUMPDEST SWAP3 SWAP2 POP POP JUMP JUMPDEST PUSH1 0x0 DUP1 PUSH1 0x0 DUP1 PUSH1 0x0 DUP1 PUSH1 0x0 DUP1 PUSH1 0xA0 DUP10 DUP12 SUB SLT ISZERO PUSH2 0x16E8 JUMPI PUSH2 0x16E7 PUSH2 0x14A5 JUMP JUMPDEST JUMPDEST PUSH1 0x0 DUP10 ADD CALLDATALOAD PUSH8 0xFFFFFFFFFFFFFFFF DUP2 GT ISZERO PUSH2 0x1706 JUMPI PUSH2 0x1705 PUSH2 0x14AA JUMP JUMPDEST JUMPDEST PUSH2 0x1712 DUP12 DUP3 DUP13 ADD PUSH2 0x15BB JUMP JUMPDEST SWAP9 POP SWAP9 POP POP PUSH1 0x20 DUP10 ADD CALLDATALOAD PUSH8 0xFFFFFFFFFFFFFFFF DUP2 GT ISZERO PUSH2 0x1735 JUMPI PUSH2 0x1734 PUSH2 0x14AA JUMP JUMPDEST JUMPDEST PUSH2 0x1741 DUP12 DUP3 DUP13 ADD PUSH2 0x15BB JUMP JUMPDEST SWAP7 POP SWAP7 POP POP PUSH1 0x40 PUSH2 0x1754 DUP12 DUP3 DUP13 ADD PUSH2 0x1621 JUMP JUMPDEST SWAP5 POP POP PUSH1 0x60 DUP10 ADD CALLDATALOAD PUSH8 0xFFFFFFFFFFFFFFFF DUP2 GT ISZERO PUSH2 0x1775 JUMPI PUSH2 0x1774 PUSH2 0x14AA JUMP JUMPDEST JUMPDEST PUSH2 0x1781 DUP12 DUP3 DUP13 ADD PUSH2 0x1636 JUMP JUMPDEST SWAP4 POP SWAP4 POP POP PUSH1 0x80 PUSH2 0x1794 DUP12 DUP3 DUP13 ADD PUSH2 0x16B3 JUMP JUMPDEST SWAP2 POP POP SWAP3 SWAP6 SWAP9 POP SWAP3 SWAP6 SWAP9 SWAP1 SWAP4 SWAP7 POP JUMP JUMPDEST PUSH2 0x17AD DUP2 PUSH2 0x14AF JUMP JUMPDEST DUP3 MSTORE POP POP JUMP JUMPDEST PUSH1 0x0 PUSH1 0x20 DUP3 ADD SWAP1 POP PUSH2 0x17C8 PUSH1 0x0 DUP4 ADD DUP5 PUSH2 0x17A4 JUMP JUMPDEST SWAP3 SWAP2 POP POP JUMP JUMPDEST PUSH1 0x0 PUSH2 0xFFFF DUP3 AND SWAP1 POP SWAP2 SWAP1 POP JUMP JUMPDEST PUSH2 0x17E5 DUP2 PUSH2 0x17CE JUMP JUMPDEST DUP2 EQ PUSH2 0x17F0 JUMPI PUSH1 0x0 DUP1 REVERT JUMPDEST POP JUMP JUMPDEST PUSH1 0x0 DUP2 CALLDATALOAD SWAP1 POP PUSH2 0x1802 DUP2 PUSH2 0x17DC JUMP JUMPDEST SWAP3 SWAP2 POP POP JUMP JUMPDEST PUSH1 0x0 DUP1 PUSH1 0x0 PUSH1 0x60 DUP5 DUP7 SUB SLT ISZERO PUSH2 0x1821 JUMPI PUSH2 0x1820 PUSH2 0x14A5 JUMP JUMPDEST JUMPDEST PUSH1 0x0 PUSH2 0x182F DUP7 DUP3 DUP8 ADD PUSH2 0x14D0 JUMP JUMPDEST SWAP4 POP POP PUSH1 0x20 PUSH2 0x1840 DUP7 DUP3 DUP8 ADD PUSH2 0x17F3 JUMP JUMPDEST SWAP3 POP POP PUSH1 0x40 PUSH2 0x1851 DUP7 DUP3 DUP8 ADD PUSH2 0x17F3 JUMP JUMPDEST SWAP2 POP POP SWAP3 POP SWAP3 POP SWAP3 JUMP JUMPDEST PUSH1 0x0 DUP2 MLOAD SWAP1 POP SWAP2 SWAP1 POP JUMP JUMPDEST PUSH1 0x0 DUP3 DUP3 MSTORE PUSH1 0x20 DUP3 ADD SWAP1 POP SWAP3 SWAP2 POP POP JUMP JUMPDEST PUSH1 0x0 DUP2 SWAP1 POP PUSH1 0x20 DUP3 ADD SWAP1 POP SWAP2 SWAP1 POP JUMP JUMPDEST PUSH2 0x1890 DUP2 PUSH2 0x14AF JUMP JUMPDEST DUP3 MSTORE POP POP JUMP JUMPDEST PUSH1 0x0 PUSH2 0x18A2 DUP4 DUP4 PUSH2 0x1887 JUMP JUMPDEST PUSH1 0x20 DUP4 ADD SWAP1 POP SWAP3 SWAP2 POP POP JUMP JUMPDEST PUSH1 0x0 PUSH1 0x20 DUP3 ADD SWAP1 POP SWAP2 SWAP1 POP JUMP JUMPDEST PUSH1 0x0 PUSH2 0x18C6 DUP3 PUSH2 0x185B JUMP JUMPDEST PUSH2 0x18D0 DUP2 DUP6 PUSH2 0x1866 JUMP JUMPDEST SWAP4 POP PUSH2 0x18DB DUP4 PUSH2 0x1877 JUMP JUMPDEST DUP1 PUSH1 0x0 JUMPDEST DUP4 DUP2 LT ISZERO PUSH2 0x190C JUMPI DUP2 MLOAD PUSH2 0x18F3 DUP9 DUP3 PUSH2 0x1896 JUMP JUMPDEST SWAP8 POP PUSH2 0x18FE DUP4 PUSH2 0x18AE JUMP JUMPDEST SWAP3 POP POP PUSH1 0x1 DUP2 ADD SWAP1 POP PUSH2 0x18DF JUMP JUMPDEST POP DUP6 SWAP4 POP POP POP POP SWAP3 SWAP2 POP POP JUMP JUMPDEST PUSH1 0x0 PUSH1 0x20 DUP3 ADD SWAP1 POP DUP2 DUP2 SUB PUSH1 0x0 DUP4 ADD MSTORE PUSH2 0x1933 DUP2 DUP5 PUSH2 0x18BB JUMP JUMPDEST SWAP1 POP SWAP3 SWAP2 POP POP JUMP JUMPDEST PUSH1 0x0 PUSH2 0x1946 DUP3 PUSH2 0x155E JUMP JUMPDEST SWAP1 POP SWAP2 SWAP1 POP JUMP JUMPDEST PUSH2 0x1956 DUP2 PUSH2 0x193B JUMP JUMPDEST DUP3 MSTORE POP POP JUMP JUMPDEST PUSH1 0x0 PUSH1 0x20 DUP3 ADD SWAP1 POP PUSH2 0x1971 PUSH1 0x0 DUP4 ADD DUP5 PUSH2 0x194D JUMP JUMPDEST SWAP3 SWAP2 POP POP JUMP JUMPDEST PUSH1 0x0 PUSH1 0xFF DUP3 AND SWAP1 POP SWAP2 SWAP1 POP JUMP JUMPDEST PUSH2 0x198D DUP2 PUSH2 0x1977 JUMP JUMPDEST DUP2 EQ PUSH2 0x1998 JUMPI PUSH1 0x0 DUP1 REVERT JUMPDEST POP JUMP JUMPDEST PUSH1 0x0 DUP2 CALLDATALOAD SWAP1 POP PUSH2 0x19AA DUP2 PUSH2 0x1984 JUMP JUMPDEST SWAP3 SWAP2 POP POP JUMP JUMPDEST PUSH1 0x0 DUP2 SWAP1 POP DUP3 PUSH1 0x20 PUSH1 0x8 MUL DUP3 ADD GT ISZERO PUSH2 0x19CC JUMPI PUSH2 0x19CB PUSH2 0x15B6 JUMP JUMPDEST JUMPDEST SWAP3 SWAP2 POP POP JUMP JUMPDEST PUSH1 0x0 DUP1 PUSH1 0x0 DUP1 PUSH1 0x0 DUP1 PUSH2 0x1A0 DUP8 DUP10 SUB SLT ISZERO PUSH2 0x19F0 JUMPI PUSH2 0x19EF PUSH2 0x14A5 JUMP JUMPDEST JUMPDEST PUSH1 0x0 PUSH2 0x19FE DUP10 DUP3 DUP11 ADD PUSH2 0x14D0 JUMP JUMPDEST SWAP7 POP POP PUSH1 0x20 PUSH2 0x1A0F DUP10 DUP3 DUP11 ADD PUSH2 0x199B JUMP JUMPDEST SWAP6 POP POP PUSH1 0x40 PUSH2 0x1A20 DUP10 DUP3 DUP11 ADD PUSH2 0x14D0 JUMP JUMPDEST SWAP5 POP POP PUSH1 0x60 PUSH2 0x1A31 DUP10 DUP3 DUP11 ADD PUSH2 0x14D0 JUMP JUMPDEST SWAP4 POP POP PUSH1 0x80 PUSH2 0x1A42 DUP10 DUP3 DUP11 ADD PUSH2 0x14D0 JUMP JUMPDEST SWAP3 POP POP PUSH1 0xA0 PUSH2 0x1A53 DUP10 DUP3 DUP11 ADD PUSH2 0x19B0 JUMP JUMPDEST SWAP2 POP POP SWAP3 SWAP6 POP SWAP3 SWAP6 POP SWAP3 SWAP6 JUMP JUMPDEST PUSH1 0x0 PUSH2 0x1A6B DUP3 PUSH2 0x1512 JUMP JUMPDEST SWAP1 POP SWAP2 SWAP1 POP JUMP JUMPDEST PUSH2 0x1A7B DUP2 PUSH2 0x1A60 JUMP JUMPDEST DUP3 MSTORE POP POP JUMP JUMPDEST PUSH1 0x0 PUSH1 0x20 DUP3 ADD SWAP1 POP PUSH2 0x1A96 PUSH1 0x0 DUP4 ADD DUP5 PUSH2 0x1A72 JUMP JUMPDEST SWAP3 SWAP2 POP POP JUMP JUMPDEST PUSH1 0x0 DUP2 MLOAD SWAP1 POP SWAP2 SWAP1 POP JUMP JUMPDEST PUSH1 0x0 DUP3 DUP3 MSTORE PUSH1 0x20 DUP3 ADD SWAP1 POP SWAP3 SWAP2 POP POP JUMP JUMPDEST PUSH1 0x0 JUMPDEST DUP4 DUP2 LT ISZERO PUSH2 0x1AD6 JUMPI DUP1 DUP3 ADD MLOAD DUP2 DUP5 ADD MSTORE PUSH1 0x20 DUP2 ADD SWAP1 POP PUSH2 0x1ABB JUMP JUMPDEST PUSH1 0x0 DUP5 DUP5 ADD MSTORE POP POP POP POP JUMP JUMPDEST PUSH1 0x0 PUSH1 0x1F NOT PUSH1 0x1F DUP4 ADD AND SWAP1 POP SWAP2 SWAP1 POP JUMP JUMPDEST PUSH1 0x0 PUSH2 0x1AFE DUP3 PUSH2 0x1A9C JUMP JUMPDEST PUSH2 0x1B08 DUP2 DUP6 PUSH2 0x1AA7 JUMP JUMPDEST SWAP4 POP PUSH2 0x1B18 DUP2 DUP6 PUSH1 0x20 DUP7 ADD PUSH2 0x1AB8 JUMP JUMPDEST PUSH2 0x1B21 DUP2 PUSH2 0x1AE2 JUMP JUMPDEST DUP5 ADD SWAP2 POP POP SWAP3 SWAP2 POP POP JUMP JUMPDEST PUSH32 0x4E487B7100000000000000000000000000000000000000000000000000000000 PUSH1 0x0 MSTORE PUSH1 0x21 PUSH1 0x4 MSTORE PUSH1 0x24 PUSH1 0x0 REVERT JUMPDEST PUSH1 0x2 DUP2 LT PUSH2 0x1B6C JUMPI PUSH2 0x1B6B PUSH2 0x1B2C JUMP JUMPDEST JUMPDEST POP JUMP JUMPDEST PUSH1 0x0 DUP2 SWAP1 POP PUSH2 0x1B7D DUP3 PUSH2 0x1B5B JUMP JUMPDEST SWAP2 SWAP1 POP JUMP JUMPDEST PUSH1 0x0 PUSH2 0x1B8D DUP3 PUSH2 0x1B6F JUMP JUMPDEST SWAP1 POP SWAP2 SWAP1 POP JUMP JUMPDEST PUSH2 0x1B9D DUP2 PUSH2 0x1B82 JUMP JUMPDEST DUP3 MSTORE POP POP JUMP JUMPDEST PUSH1 0x0 DUP2 ISZERO ISZERO SWAP1 POP SWAP2 SWAP1 POP JUMP JUMPDEST PUSH2 0x1BB8 DUP2 PUSH2 0x1BA3 JUMP JUMPDEST DUP3 MSTORE POP POP JUMP JUMPDEST PUSH1 0x0 PUSH8 0xFFFFFFFFFFFFFFFF DUP3 AND SWAP1 POP SWAP2 SWAP1 POP JUMP JUMPDEST PUSH2 0x1BDB DUP2 PUSH2 0x1BBE JUMP JUMPDEST DUP3 MSTORE POP POP JUMP JUMPDEST PUSH1 0x0 DUP2 MLOAD SWAP1 POP SWAP2 SWAP1 POP JUMP JUMPDEST PUSH1 0x0 DUP3 DUP3 MSTORE PUSH1 0x20 DUP3 ADD SWAP1 POP SWAP3 SWAP2 POP POP JUMP JUMPDEST PUSH1 0x0 DUP2 SWAP1 POP PUSH1 0x20 DUP3 ADD SWAP1 POP SWAP2 SWAP1 POP JUMP JUMPDEST PUSH1 0x0 DUP3 DUP3 MSTORE PUSH1 0x20 DUP3 ADD SWAP1 POP SWAP3 SWAP2 POP POP JUMP JUMPDEST PUSH1 0x0 PUSH2 0x1C29 DUP3 PUSH2 0x1A9C JUMP JUMPDEST PUSH2 0x1C33 DUP2 DUP6 PUSH2 0x1C0D JUMP JUMPDEST SWAP4 POP PUSH2 0x1C43 DUP2 DUP6 PUSH1 0x20 DUP7 ADD PUSH2 0x1AB8 JUMP JUMPDEST PUSH2 0x1C4C DUP2 PUSH2 0x1AE2 JUMP JUMPDEST DUP5 ADD SWAP2 POP POP SWAP3 SWAP2 POP POP JUMP JUMPDEST PUSH1 0x0 PUSH2 0x1C63 DUP4 DUP4 PUSH2 0x1C1E JUMP JUMPDEST SWAP1 POP SWAP3 SWAP2 POP POP JUMP JUMPDEST PUSH1 0x0 PUSH1 0x20 DUP3 ADD SWAP1 POP SWAP2 SWAP1 POP JUMP JUMPDEST PUSH1 0x0 PUSH2 0x1C83 DUP3 PUSH2 0x1BE1 JUMP JUMPDEST PUSH2 0x1C8D DUP2 DUP6 PUSH2 0x1BEC JUMP JUMPDEST SWAP4 POP DUP4 PUSH1 0x20 DUP3 MUL DUP6 ADD PUSH2 0x1C9F DUP6 PUSH2 0x1BFD JUMP JUMPDEST DUP1 PUSH1 0x0 JUMPDEST DUP6 DUP2 LT ISZERO PUSH2 0x1CDB JUMPI DUP5 DUP5 SUB DUP10 MSTORE DUP2 MLOAD PUSH2 0x1CBC DUP6 DUP3 PUSH2 0x1C57 JUMP JUMPDEST SWAP5 POP PUSH2 0x1CC7 DUP4 PUSH2 0x1C6B JUMP JUMPDEST SWAP3 POP PUSH1 0x20 DUP11 ADD SWAP10 POP POP PUSH1 0x1 DUP2 ADD SWAP1 POP PUSH2 0x1CA3 JUMP JUMPDEST POP DUP3 SWAP8 POP DUP8 SWAP6 POP POP POP POP POP POP SWAP3 SWAP2 POP POP JUMP JUMPDEST PUSH1 0x0 PUSH1 0xA0 DUP3 ADD SWAP1 POP DUP2 DUP2 SUB PUSH1 0x0 DUP4 ADD MSTORE PUSH2 0x1D07 DUP2 DUP9 PUSH2 0x1AF3 JUMP JUMPDEST SWAP1 POP PUSH2 0x1D16 PUSH1 0x20 DUP4 ADD DUP8 PUSH2 0x1B94 JUMP JUMPDEST PUSH2 0x1D23 PUSH1 0x40 DUP4 ADD DUP7 PUSH2 0x1BAF JUMP JUMPDEST PUSH2 0x1D30 PUSH1 0x60 DUP4 ADD DUP6 PUSH2 0x1BD2 JUMP JUMPDEST DUP2 DUP2 SUB PUSH1 0x80 DUP4 ADD MSTORE PUSH2 0x1D42 DUP2 DUP5 PUSH2 0x1C78 JUMP JUMPDEST SWAP1 POP SWAP7 SWAP6 POP POP POP POP POP POP JUMP JUMPDEST PUSH2 0x1D57 DUP2 PUSH2 0x1A60 JUMP JUMPDEST DUP2 EQ PUSH2 0x1D62 JUMPI PUSH1 0x0 DUP1 REVERT JUMPDEST POP JUMP JUMPDEST PUSH1 0x0 DUP2 CALLDATALOAD SWAP1 POP PUSH2 0x1D74 DUP2 PUSH2 0x1D4E JUMP JUMPDEST SWAP3 SWAP2 POP POP JUMP JUMPDEST PUSH1 0x0 PUSH1 0x20 DUP3 DUP5 SUB SLT ISZERO PUSH2 0x1D90 JUMPI PUSH2 0x1D8F PUSH2 0x14A5 JUMP JUMPDEST JUMPDEST PUSH1 0x0 PUSH2 0x1D9E DUP5 DUP3 DUP6 ADD PUSH2 0x1D65 JUMP JUMPDEST SWAP2 POP POP SWAP3 SWAP2 POP POP JUMP JUMPDEST PUSH32 0x616C726561647920636C6F736564000000000000000000000000000000000000 PUSH1 0x0 DUP3 ADD MSTORE POP JUMP JUMPDEST PUSH1 0x0 PUSH2 0x1DDD PUSH1 0xE DUP4 PUSH2 0x1AA7 JUMP JUMPDEST SWAP2 POP PUSH2 0x1DE8 DUP3 PUSH2 0x1DA7 JUMP JUMPDEST PUSH1 0x20 DUP3 ADD SWAP1 POP SWAP2 SWAP1 POP JUMP JUMPDEST PUSH1 0x0 PUSH1 0x20 DUP3 ADD SWAP1 POP DUP2 DUP2 SUB PUSH1 0x0 DUP4 ADD MSTORE PUSH2 0x1E0C DUP2 PUSH2 0x1DD0 JUMP JUMPDEST SWAP1 POP SWAP2 SWAP1 POP JUMP JUMPDEST PUSH32 0x6E6F742065787069726564000000000000000000000000000000000000000000 PUSH1 0x0 DUP3 ADD MSTORE POP JUMP JUMPDEST PUSH1 0x0 PUSH2 0x1E49 PUSH1 0xB DUP4 PUSH2 0x1AA7 JUMP JUMPDEST SWAP2 POP PUSH2 0x1E54 DUP3 PUSH2 0x1E13 JUMP JUMPDEST PUSH1 0x20 DUP3 ADD SWAP1 POP SWAP2 SWAP1 POP JUMP JUMPDEST PUSH1 0x0 PUSH1 0x20 DUP3 ADD SWAP1 POP DUP2 DUP2 SUB PUSH1 0x0 DUP4 ADD MSTORE PUSH2 0x1E78 DUP2 PUSH2 0x1E3C JUMP JUMPDEST SWAP1 POP SWAP2 SWAP1 POP JUMP JUMPDEST PUSH32 0x4E487B7100000000000000000000000000000000000000000000000000000000 PUSH1 0x0 MSTORE PUSH1 0x11 PUSH1 0x4 MSTORE PUSH1 0x24 PUSH1 0x0 REVERT JUMPDEST PUSH1 0x0 PUSH2 0x1EB9 DUP3 PUSH2 0x1977 JUMP JUMPDEST SWAP2 POP PUSH1 0xFF DUP3 SUB PUSH2 0x1ECC JUMPI PUSH2 0x1ECB PUSH2 0x1E7F JUMP JUMPDEST JUMPDEST PUSH1 0x1 DUP3 ADD SWAP1 POP SWAP2 SWAP1 POP JUMP JUMPDEST PUSH2 0x1EE0 DUP2 PUSH2 0x1977 JUMP JUMPDEST DUP3 MSTORE POP POP JUMP JUMPDEST PUSH1 0x0 PUSH1 0x20 DUP3 ADD SWAP1 POP PUSH2 0x1EFB PUSH1 0x0 DUP4 ADD DUP5 PUSH2 0x1ED7 JUMP JUMPDEST SWAP3 SWAP2 POP POP JUMP JUMPDEST PUSH32 0x6E65656420322B206F7074730000000000000000000000000000000000000000 PUSH1 0x0 DUP3 ADD MSTORE POP JUMP JUMPDEST PUSH1 0x0 PUSH2 0x1F37 PUSH1 0xC DUP4 PUSH2 0x1AA7 JUMP JUMPDEST SWAP2 POP PUSH2 0x1F42 DUP3 PUSH2 0x1F01 JUMP JUMPDEST PUSH1 0x20 DUP3 ADD SWAP1 POP SWAP2 SWAP1 POP JUMP JUMPDEST PUSH1 0x0 PUSH1 0x20 DUP3 ADD SWAP1 POP DUP2 DUP2 SUB PUSH1 0x0 DUP4 ADD MSTORE PUSH2 0x1F66 DUP2 PUSH2 0x1F2A JUMP JUMPDEST SWAP1 POP SWAP2 SWAP1 POP JUMP JUMPDEST PUSH1 0x0 PUSH2 0x1F78 DUP3 PUSH2 0x14AF JUMP JUMPDEST SWAP2 POP PUSH32 0xFFFFFFFFFFFFFFFFFFFFFFFFFFFFFFFFFFFFFFFFFFFFFFFFFFFFFFFFFFFFFFFF DUP3 SUB PUSH2 0x1FAA JUMPI PUSH2 0x1FA9 PUSH2 0x1E7F JUMP JUMPDEST JUMPDEST PUSH1 0x1 DUP3 ADD SWAP1 POP SWAP2 SWAP1 POP JUMP JUMPDEST PUSH1 0x0 DUP3 SWAP1 POP SWAP3 SWAP2 POP POP JUMP JUMPDEST PUSH32 0x4E487B7100000000000000000000000000000000000000000000000000000000 PUSH1 0x0 MSTORE PUSH1 0x41 PUSH1 0x4 MSTORE PUSH1 0x24 PUSH1 0x0 REVERT JUMPDEST PUSH32 0x4E487B7100000000000000000000000000000000000000000000000000000000 PUSH1 0x0 MSTORE PUSH1 0x22 PUSH1 0x4 MSTORE PUSH1 0x24 PUSH1 0x0 REVERT JUMPDEST PUSH1 0x0 PUSH1 0x2 DUP3 DIV SWAP1 POP PUSH1 0x1 DUP3 AND DUP1 PUSH2 0x2036 JUMPI PUSH1 0x7F DUP3 AND SWAP2 POP JUMPDEST PUSH1 0x20 DUP3 LT DUP2 SUB PUSH2 0x2049 JUMPI PUSH2 0x2048 PUSH2 0x1FEF JUMP JUMPDEST JUMPDEST POP SWAP2 SWAP1 POP JUMP JUMPDEST PUSH1 0x0 DUP2 SWAP1 POP DUP2 PUSH1 0x0 MSTORE PUSH1 0x20 PUSH1 0x0 KECCAK256 SWAP1 POP SWAP2 SWAP1 POP JUMP JUMPDEST PUSH1 0x0 PUSH1 0x20 PUSH1 0x1F DUP4 ADD DIV SWAP1 POP SWAP2 SWAP1 POP JUMP JUMPDEST PUSH1 0x0 DUP3 DUP3 SHL SWAP1 POP SWAP3 SWAP2 POP POP JUMP JUMPDEST PUSH1 0x0 PUSH1 0x8 DUP4 MUL PUSH2 0x20B1 PUSH32 0xFFFFFFFFFFFFFFFFFFFFFFFFFFFFFFFFFFFFFFFFFFFFFFFFFFFFFFFFFFFFFFFF DUP3 PUSH2 0x2074 JUMP JUMPDEST PUSH2 0x20BB DUP7 DUP4 PUSH2 0x2074 JUMP JUMPDEST SWAP6 POP DUP1 NOT DUP5 AND SWAP4 POP DUP1 DUP7 AND DUP5 OR SWAP3 POP POP POP SWAP4 SWAP3 POP POP POP JUMP JUMPDEST PUSH1 0x0 PUSH2 0x20EE PUSH2 0x20E9 PUSH2 0x20E4 DUP5 PUSH2 0x14AF JUMP JUMPDEST PUSH2 0x1532 JUMP JUMPDEST PUSH2 0x14AF JUMP JUMPDEST SWAP1 POP SWAP2 SWAP1 POP JUMP JUMPDEST PUSH1 0x0 DUP2 SWAP1 POP SWAP2 SWAP1 POP JUMP JUMPDEST PUSH2 0x2108 DUP4 PUSH2 0x20D3 JUMP JUMPDEST PUSH2 0x211C PUSH2 0x2114 DUP3 PUSH2 0x20F5 JUMP JUMPDEST DUP5 DUP5 SLOAD PUSH2 0x2081 JUMP JUMPDEST DUP3 SSTORE POP POP POP POP JUMP JUMPDEST PUSH1 0x0 SWAP1 JUMP JUMPDEST PUSH2 0x2131 PUSH2 0x2124 JUMP JUMPDEST PUSH2 0x213C DUP2 DUP5 DUP5 PUSH2 0x20FF JUMP JUMPDEST POP POP POP JUMP JUMPDEST JUMPDEST DUP2 DUP2 LT ISZERO PUSH2 0x2160 JUMPI PUSH2 0x2155 PUSH1 0x0 DUP3 PUSH2 0x2129 JUMP JUMPDEST PUSH1 0x1 DUP2 ADD SWAP1 POP PUSH2 0x2142 JUMP JUMPDEST POP POP JUMP JUMPDEST PUSH1 0x1F DUP3 GT ISZERO PUSH2 0x21A5 JUMPI PUSH2 0x2176 DUP2 PUSH2 0x204F JUMP JUMPDEST PUSH2 0x217F DUP5 PUSH2 0x2064 JUMP JUMPDEST DUP2 ADD PUSH1 0x20 DUP6 LT ISZERO PUSH2 0x218E JUMPI DUP2 SWAP1 POP JUMPDEST PUSH2 0x21A2 PUSH2 0x219A DUP6 PUSH2 0x2064 JUMP JUMPDEST DUP4 ADD DUP3 PUSH2 0x2141 JUMP JUMPDEST POP POP JUMPDEST POP POP POP JUMP JUMPDEST PUSH1 0x0 DUP3 DUP3 SHR SWAP1 POP SWAP3 SWAP2 POP POP JUMP JUMPDEST PUSH1 0x0 PUSH2 0x21C8 PUSH1 0x0 NOT DUP5 PUSH1 0x8 MUL PUSH2 0x21AA JUMP JUMPDEST NOT DUP1 DUP4 AND SWAP2 POP POP SWAP3 SWAP2 POP POP JUMP JUMPDEST PUSH1 0x0 PUSH2 0x21E1 DUP4 DUP4 PUSH2 0x21B7 JUMP JUMPDEST SWAP2 POP DUP3 PUSH1 0x2 MUL DUP3 OR SWAP1 POP SWAP3 SWAP2 POP POP JUMP JUMPDEST PUSH2 0x21FB DUP4 DUP4 PUSH2 0x1FB5 JUMP JUMPDEST PUSH8 0xFFFFFFFFFFFFFFFF DUP2 GT ISZERO PUSH2 0x2214 JUMPI PUSH2 0x2213 PUSH2 0x1FC0 JUMP JUMPDEST JUMPDEST PUSH2 0x221E DUP3 SLOAD PUSH2 0x201E JUMP JUMPDEST PUSH2 0x2229 DUP3 DUP3 DUP6 PUSH2 0x2164 JUMP JUMPDEST PUSH1 0x0 PUSH1 0x1F DUP4 GT PUSH1 0x1 DUP2 EQ PUSH2 0x2258 JUMPI PUSH1 0x0 DUP5 ISZERO PUSH2 0x2246 JUMPI DUP3 DUP8 ADD CALLDATALOAD SWAP1 POP JUMPDEST PUSH2 0x2250 DUP6 DUP3 PUSH2 0x21D5 JUMP JUMPDEST DUP7 SSTORE POP PUSH2 0x22B8 JUMP JUMPDEST PUSH1 0x1F NOT DUP5 AND PUSH2 0x2266 DUP7 PUSH2 0x204F JUMP JUMPDEST PUSH1 0x0 JUMPDEST DUP3 DUP2 LT ISZERO PUSH2 0x228E JUMPI DUP5 DUP10 ADD CALLDATALOAD DUP3 SSTORE PUSH1 0x1 DUP3 ADD SWAP2 POP PUSH1 0x20 DUP6 ADD SWAP5 POP PUSH1 0x20 DUP2 ADD SWAP1 POP PUSH2 0x2269 JUMP JUMPDEST DUP7 DUP4 LT ISZERO PUSH2 0x22AB JUMPI DUP5 DUP10 ADD CALLDATALOAD PUSH2 0x22A7 PUSH1 0x1F DUP10 AND DUP3 PUSH2 0x21B7 JUMP JUMPDEST DUP4 SSTORE POP JUMPDEST PUSH1 0x1 PUSH1 0x2 DUP9 MUL ADD DUP9 SSTORE POP POP POP JUMPDEST POP POP POP POP POP POP POP JUMP JUMPDEST PUSH32 0x4E487B7100000000000000000000000000000000000000000000000000000000 PUSH1 0x0 MSTORE PUSH1 0x32 PUSH1 0x4 MSTORE PUSH1 0x24 PUSH1 0x0 REVERT JUMPDEST PUSH1 0x0 DUP1 REVERT JUMPDEST PUSH1 0x0 DUP1 REVERT JUMPDEST PUSH1 0x0 DUP1 REVERT JUMPDEST PUSH1 0x0 DUP1 DUP4 CALLDATALOAD PUSH1 0x1 PUSH1 0x20 SUB DUP5 CALLDATASIZE SUB SUB DUP2 SLT PUSH2 0x231C JUMPI PUSH2 0x231B PUSH2 0x22F0 JUMP JUMPDEST JUMPDEST DUP1 DUP5 ADD SWAP3 POP DUP3 CALLDATALOAD SWAP2 POP PUSH8 0xFFFFFFFFFFFFFFFF DUP3 GT ISZERO PUSH2 0x233E JUMPI PUSH2 0x233D PUSH2 0x22F5 JUMP JUMPDEST JUMPDEST PUSH1 0x20 DUP4 ADD SWAP3 POP PUSH1 0x1 DUP3 MUL CALLDATASIZE SUB DUP4 SGT ISZERO PUSH2 0x235A JUMPI PUSH2 0x2359 PUSH2 0x22FA JUMP JUMPDEST JUMPDEST POP SWAP3 POP SWAP3 SWAP1 POP JUMP JUMPDEST PUSH1 0x0 PUSH2 0x236D DUP3 PUSH2 0x1BBE JUMP JUMPDEST SWAP2 POP PUSH2 0x2378 DUP4 PUSH2 0x1BBE JUMP JUMPDEST SWAP3 POP DUP3 DUP3 ADD SWAP1 POP PUSH8 0xFFFFFFFFFFFFFFFF DUP2 GT ISZERO PUSH2 0x2398 JUMPI PUSH2 0x2397 PUSH2 0x1E7F JUMP JUMPDEST JUMPDEST SWAP3 SWAP2 POP POP JUMP JUMPDEST DUP3 DUP2 DUP4 CALLDATACOPY PUSH1 0x0 DUP4 DUP4 ADD MSTORE POP POP POP JUMP JUMPDEST PUSH1 0x0 PUSH2 0x23B9 DUP4 DUP6 PUSH2 0x1AA7 JUMP JUMPDEST SWAP4 POP PUSH2 0x23C6 DUP4 DUP6 DUP5 PUSH2 0x239E JUMP JUMPDEST PUSH2 0x23CF DUP4 PUSH2 0x1AE2 JUMP JUMPDEST DUP5 ADD SWAP1 POP SWAP4 SWAP3 POP POP POP JUMP JUMPDEST PUSH1 0x0 PUSH1 0x60 DUP3 ADD SWAP1 POP PUSH2 0x23EF PUSH1 0x0 DUP4 ADD DUP8 PUSH2 0x1B94 JUMP JUMPDEST DUP2 DUP2 SUB PUSH1 0x20 DUP4 ADD MSTORE PUSH2 0x2402 DUP2 DUP6 DUP8 PUSH2 0x23AD JUMP JUMPDEST SWAP1 POP PUSH2 0x2411 PUSH1 0x40 DUP4 ADD DUP5 PUSH2 0x1BD2 JUMP JUMPDEST SWAP6 SWAP5 POP POP POP POP POP JUMP JUMPDEST PUSH32 0x6F6F620000000000000000000000000000000000000000000000000000000000 PUSH1 0x0 DUP3 ADD MSTORE POP JUMP JUMPDEST PUSH1 0x0 PUSH2 0x2450 PUSH1 0x3 DUP4 PUSH2 0x1AA7 JUMP JUMPDEST SWAP2 POP PUSH2 0x245B DUP3 PUSH2 0x241A JUMP JUMPDEST PUSH1 0x20 DUP3 ADD SWAP1 POP SWAP2 SWAP1 POP JUMP JUMPDEST PUSH1 0x0 PUSH1 0x20 DUP3 ADD SWAP1 POP DUP2 DUP2 SUB PUSH1 0x0 DUP4 ADD MSTORE PUSH2 0x247F DUP2 PUSH2 0x2443 JUMP JUMPDEST SWAP1 POP SWAP2 SWAP1 POP JUMP JUMPDEST PUSH1 0x0 PUSH2 0x2491 DUP3 PUSH2 0x17CE JUMP JUMPDEST SWAP2 POP PUSH2 0x249C DUP4 PUSH2 0x17CE JUMP JUMPDEST SWAP3 POP DUP3 DUP3 ADD SWAP1 POP PUSH2 0xFFFF DUP2 GT ISZERO PUSH2 0x24B6 JUMPI PUSH2 0x24B5 PUSH2 0x1E7F JUMP JUMPDEST JUMPDEST SWAP3 SWAP2 POP POP JUMP JUMPDEST PUSH1 0x0 PUSH2 0x24C7 DUP3 PUSH2 0x17CE JUMP JUMPDEST SWAP2 POP PUSH2 0x24D2 DUP4 PUSH2 0x17CE JUMP JUMPDEST SWAP3 POP DUP3 DUP3 SUB SWAP1 POP PUSH2 0xFFFF DUP2 GT ISZERO PUSH2 0x24EC JUMPI PUSH2 0x24EB PUSH2 0x1E7F JUMP JUMPDEST JUMPDEST SWAP3 SWAP2 POP POP JUMP JUMPDEST PUSH32 0x766F74696E6720697320636C6F73656400000000000000000000000000000000 PUSH1 0x0 DUP3 ADD MSTORE POP JUMP JUMPDEST PUSH1 0x0 PUSH2 0x2528 PUSH1 0x10 DUP4 PUSH2 0x1AA7 JUMP JUMPDEST SWAP2 POP PUSH2 0x2533 DUP3 PUSH2 0x24F2 JUMP JUMPDEST PUSH1 0x20 DUP3 ADD SWAP1 POP SWAP2 SWAP1 POP JUMP JUMPDEST PUSH1 0x0 PUSH1 0x20 DUP3 ADD SWAP1 POP DUP2 DUP2 SUB PUSH1 0x0 DUP4 ADD MSTORE PUSH2 0x2557 DUP2 PUSH2 0x251B JUMP JUMPDEST SWAP1 POP SWAP2 SWAP1 POP JUMP JUMPDEST PUSH32 0x696E76616C6964206F7074696F6E000000000000000000000000000000000000 PUSH1 0x0 DUP3 ADD MSTORE POP JUMP JUMPDEST PUSH1 0x0 PUSH2 0x2594 PUSH1 0xE DUP4 PUSH2 0x1AA7 JUMP JUMPDEST SWAP2 POP PUSH2 0x259F DUP3 PUSH2 0x255E JUMP JUMPDEST PUSH1 0x20 DUP3 ADD SWAP1 POP SWAP2 SWAP1 POP JUMP JUMPDEST PUSH1 0x0 PUSH1 0x20 DUP3 ADD SWAP1 POP DUP2 DUP2 SUB PUSH1 0x0 DUP4 ADD MSTORE PUSH2 0x25C3 DUP2 PUSH2 0x2587 JUMP JUMPDEST SWAP1 POP SWAP2 SWAP1 POP JUMP JUMPDEST PUSH32 0x766F746520616C72656164792063617374000000000000000000000000000000 PUSH1 0x0 DUP3 ADD MSTORE POP JUMP JUMPDEST PUSH1 0x0 PUSH2 0x2600 PUSH1 0x11 DUP4 PUSH2 0x1AA7 JUMP JUMPDEST SWAP2 POP PUSH2 0x260B DUP3 PUSH2 0x25CA JUMP JUMPDEST PUSH1 0x20 DUP3 ADD SWAP1 POP SWAP2 SWAP1 POP JUMP JUMPDEST PUSH1 0x0 PUSH1 0x20 DUP3 ADD SWAP1 POP DUP2 DUP2 SUB PUSH1 0x0 DUP4 ADD MSTORE PUSH2 0x262F DUP2 PUSH2 0x25F3 JUMP JUMPDEST SWAP1 POP SWAP2 SWAP1 POP JUMP JUMPDEST PUSH32 0x696E76616C6964206D65726B6C6520726F6F7400000000000000000000000000 PUSH1 0x0 DUP3 ADD MSTORE POP JUMP JUMPDEST PUSH1 0x0 PUSH2 0x266C PUSH1 0x13 DUP4 PUSH2 0x1AA7 JUMP JUMPDEST SWAP2 POP PUSH2 0x2677 DUP3 PUSH2 0x2636 JUMP JUMPDEST PUSH1 0x20 DUP3 ADD SWAP1 POP SWAP2 SWAP1 POP JUMP JUMPDEST PUSH1 0x0 PUSH1 0x20 DUP3 ADD SWAP1 POP DUP2 DUP2 SUB PUSH1 0x0 DUP4 ADD MSTORE PUSH2 0x269B DUP2 PUSH2 0x265F JUMP JUMPDEST SWAP1 POP SWAP2 SWAP1 POP JUMP JUMPDEST PUSH1 0x0 DUP2 SWAP1 POP SWAP3 SWAP2 POP POP JUMP JUMPDEST PUSH32 0x564F54455F000000000000000000000000000000000000000000000000000000 PUSH1 0x0 DUP3 ADD MSTORE POP JUMP JUMPDEST PUSH1 0x0 PUSH2 0x26E3 PUSH1 0x5 DUP4 PUSH2 0x26A2 JUMP JUMPDEST SWAP2 POP PUSH2 0x26EE DUP3 PUSH2 0x26AD JUMP JUMPDEST PUSH1 0x5 DUP3 ADD SWAP1 POP SWAP2 SWAP1 POP JUMP JUMPDEST PUSH1 0x0 PUSH2 0x2704 DUP3 PUSH2 0x1A9C JUMP JUMPDEST PUSH2 0x270E DUP2 DUP6 PUSH2 0x26A2 JUMP JUMPDEST SWAP4 POP PUSH2 0x271E DUP2 DUP6 PUSH1 0x20 DUP7 ADD PUSH2 0x1AB8 JUMP JUMPDEST DUP1 DUP5 ADD SWAP2 POP POP SWAP3 SWAP2 POP POP JUMP JUMPDEST PUSH1 0x0 PUSH2 0x2735 DUP3 PUSH2 0x26D6 JUMP JUMPDEST SWAP2 POP PUSH2 0x2741 DUP3 DUP5 PUSH2 0x26F9 JUMP JUMPDEST SWAP2 POP DUP2 SWAP1 POP SWAP3 SWAP2 POP POP JUMP JUMPDEST PUSH32 0x7369676E616C2D6F7074696F6E206D69736D6174636800000000000000000000 PUSH1 0x0 DUP3 ADD MSTORE POP JUMP JUMPDEST PUSH1 0x0 PUSH2 0x2782 PUSH1 0x16 DUP4 PUSH2 0x1AA7 JUMP JUMPDEST SWAP2 POP PUSH2 0x278D DUP3 PUSH2 0x274C JUMP JUMPDEST PUSH1 0x20 DUP3 ADD SWAP1 POP SWAP2 SWAP1 POP JUMP JUMPDEST PUSH1 0x0 PUSH1 0x20 DUP3 ADD SWAP1 POP DUP2 DUP2 SUB PUSH1 0x0 DUP4 ADD MSTORE PUSH2 0x27B1 DUP2 PUSH2 0x2775 JUMP JUMPDEST SWAP1 POP SWAP2 SWAP1 POP JUMP JUMPDEST DUP3 DUP2 DUP4 CALLDATACOPY POP POP POP JUMP JUMPDEST PUSH2 0x27CE PUSH2 0x100 DUP4 DUP4 PUSH2 0x27B8 JUMP JUMPDEST POP POP JUMP JUMPDEST PUSH1 0x0 PUSH1 0x4 SWAP1 POP SWAP2 SWAP1 POP JUMP JUMPDEST PUSH1 0x0 DUP2 SWAP1 POP SWAP3 SWAP2 POP POP JUMP JUMPDEST PUSH1 0x0 DUP2 SWAP1 POP SWAP2 SWAP1 POP JUMP JUMPDEST PUSH1 0x0 PUSH1 0x20 DUP3 ADD SWAP1 POP SWAP2 SWAP1 POP JUMP JUMPDEST PUSH2 0x2808 DUP2 PUSH2 0x27D2 JUMP JUMPDEST PUSH2 0x2812 DUP2 DUP5 PUSH2 0x27DD JUMP JUMPDEST SWAP3 POP PUSH2 0x281D DUP3 PUSH2 0x27E8 JUMP JUMPDEST DUP1 PUSH1 0x0 JUMPDEST DUP4 DUP2 LT ISZERO PUSH2 0x284E JUMPI DUP2 MLOAD PUSH2 0x2835 DUP8 DUP3 PUSH2 0x1896 JUMP JUMPDEST SWAP7 POP PUSH2 0x2840 DUP4 PUSH2 0x27F2 JUMP JUMPDEST SWAP3 POP POP PUSH1 0x1 DUP2 ADD SWAP1 POP PUSH2 0x2821 JUMP JUMPDEST POP POP POP POP POP POP JUMP JUMPDEST PUSH1 0x0 PUSH2 0x180 DUP3 ADD SWAP1 POP PUSH2 0x286C PUSH1 0x0 DUP4 ADD DUP6 PUSH2 0x27C1 JUMP JUMPDEST PUSH2 0x287A PUSH2 0x100 DUP4 ADD DUP5 PUSH2 0x27FF JUMP JUMPDEST SWAP4 SWAP3 POP POP POP JUMP JUMPDEST PUSH2 0x288A DUP2 PUSH2 0x1BA3 JUMP JUMPDEST DUP2 EQ PUSH2 0x2895 JUMPI PUSH1 0x0 DUP1 REVERT JUMPDEST POP JUMP JUMPDEST PUSH1 0x0 DUP2 MLOAD SWAP1 POP PUSH2 0x28A7 DUP2 PUSH2 0x2881 JUMP JUMPDEST SWAP3 SWAP2 POP POP JUMP JUMPDEST PUSH1 0x0 PUSH1 0x20 DUP3 DUP5 SUB SLT ISZERO PUSH2 0x28C3 JUMPI PUSH2 0x28C2 PUSH2 0x14A5 JUMP JUMPDEST JUMPDEST PUSH1 0x0 PUSH2 0x28D1 DUP5 DUP3 DUP6 ADD PUSH2 0x2898 JUMP JUMPDEST SWAP2 POP POP SWAP3 SWAP2 POP POP JUMP JUMPDEST PUSH32 0x696E76616C69642070726F6F6600000000000000000000000000000000000000 PUSH1 0x0 DUP3 ADD MSTORE POP JUMP JUMPDEST PUSH1 0x0 PUSH2 0x2910 PUSH1 0xD DUP4 PUSH2 0x1AA7 JUMP JUMPDEST SWAP2 POP PUSH2 0x291B DUP3 PUSH2 0x28DA JUMP JUMPDEST PUSH1 0x20 DUP3 ADD SWAP1 POP SWAP2 SWAP1 POP JUMP JUMPDEST PUSH1 0x0 PUSH1 0x20 DUP3 ADD SWAP1 POP DUP2 DUP2 SUB PUSH1 0x0 DUP4 ADD MSTORE PUSH2 0x293F DUP2 PUSH2 0x2903 JUMP JUMPDEST SWAP1 POP SWAP2 SWAP1 POP JUMP JUMPDEST PUSH1 0x0 PUSH1 0x60 DUP3 ADD SWAP1 POP PUSH2 0x295B PUSH1 0x0 DUP4 ADD DUP7 PUSH2 0x17A4 JUMP JUMPDEST PUSH2 0x2968 PUSH1 0x20 DUP4 ADD DUP6 PUSH2 0x17A4 JUMP JUMPDEST PUSH2 0x2975 PUSH1 0x40 DUP4 ADD DUP5 PUSH2 0x17A4 JUMP JUMPDEST SWAP5 SWAP4 POP POP POP POP JUMP JUMPDEST PUSH1 0x0 DUP2 MLOAD SWAP1 POP PUSH2 0x298C DUP2 PUSH2 0x14B9 JUMP JUMPDEST SWAP3 SWAP2 POP POP JUMP JUMPDEST PUSH1 0x0 PUSH1 0x20 DUP3 DUP5 SUB SLT ISZERO PUSH2 0x29A8 JUMPI PUSH2 0x29A7 PUSH2 0x14A5 JUMP JUMPDEST JUMPDEST PUSH1 0x0 PUSH2 0x29B6 DUP5 DUP3 DUP6 ADD PUSH2 0x297D JUMP JUMPDEST SWAP2 POP POP SWAP3 SWAP2 POP POP JUMP JUMPDEST PUSH1 0x0 PUSH1 0x60 DUP3 ADD SWAP1 POP PUSH2 0x29D4 PUSH1 0x0 DUP4 ADD DUP7 PUSH2 0x1ED7 JUMP JUMPDEST PUSH2 0x29E1 PUSH1 0x20 DUP4 ADD DUP6 PUSH2 0x17A4 JUMP JUMPDEST PUSH2 0x29EE PUSH1 0x40 DUP4 ADD DUP5 PUSH2 0x17A4 JUMP JUMPDEST SWAP5 SWAP4 POP POP POP POP JUMP JUMPDEST PUSH32 0x4E487B7100000000000000000000000000000000000000000000000000000000 PUSH1 0x0 MSTORE PUSH1 0x12 PUSH1 0x4 MSTORE PUSH1 0x24 PUSH1 0x0 REVERT JUMPDEST PUSH1 0x0 PUSH2 0x2A30 DUP3 PUSH2 0x14AF JUMP JUMPDEST SWAP2 POP PUSH2 0x2A3B DUP4 PUSH2 0x14AF JUMP JUMPDEST SWAP3 POP DUP3 PUSH2 0x2A4B JUMPI PUSH2 0x2A4A PUSH2 0x29F6 JUMP JUMPDEST JUMPDEST DUP3 DUP3 DIV SWAP1 POP SWAP3 SWAP2 POP POP JUMP JUMPDEST PUSH1 0x0 PUSH2 0x2A61 DUP3 PUSH2 0x14AF JUMP JUMPDEST SWAP2 POP PUSH2 0x2A6C DUP4 PUSH2 0x14AF JUMP JUMPDEST SWAP3 POP DUP3 DUP3 SUB SWAP1 POP DUP2 DUP2 GT ISZERO PUSH2 0x2A84 JUMPI PUSH2 0x2A83 PUSH2 0x1E7F JUMP JUMPDEST JUMPDEST SWAP3 SWAP2 POP POP JUMP JUMPDEST PUSH1 0x0 PUSH2 0x2A95 DUP3 PUSH2 0x14AF JUMP JUMPDEST SWAP2 POP PUSH2 0x2AA0 DUP4 PUSH2 0x14AF JUMP JUMPDEST SWAP3 POP DUP3 PUSH2 0x2AB0 JUMPI PUSH2 0x2AAF PUSH2 0x29F6 JUMP JUMPDEST JUMPDEST DUP3 DUP3 MOD SWAP1 POP SWAP3 SWAP2 POP POP JUMP JUMPDEST PUSH1 0x0 PUSH2 0x2AC6 DUP3 PUSH2 0x14AF JUMP JUMPDEST SWAP2 POP PUSH2 0x2AD1 DUP4 PUSH2 0x14AF JUMP JUMPDEST SWAP3 POP DUP3 DUP3 ADD SWAP1 POP DUP1 DUP3 GT ISZERO PUSH2 0x2AE9 JUMPI PUSH2 0x2AE8 PUSH2 0x1E7F JUMP JUMPDEST JUMPDEST SWAP3 SWAP2 POP POP JUMP INVALID LOG2 PUSH5 0x6970667358 0x22 SLT KECCAK256 0xC7 0xA9 0xE3 0xAE 0x23 0xEF 0xD4 0x4C 0xBD LOG0 DUP2 CALLDATACOPY 0xFC PUSH23 0xE0017C24151B956D30E446ACE3FB51C0391664736F6C63 NUMBER STOP ADDMOD XOR STOP CALLER "},"methodIdentifiers":{"closeProposal(uint256)":"0386a016","createProposal(string,string,uint8,string[],uint32)":"0a898f49","getProposal(uint256)":"c7f758a8","govToken()":"05268cff","memberMerkleRoot()":"85f0ad84","owner()":"8da5cb5b","proposalCount()":"da35c664","renounceOwnership()":"715018a6","tallies(uint256,uint16,uint16)":"1809beba","transferOwnership(address)":"f2fde38b","updateMemberRoot(uint256)":"112f6991","verifier()":"2b7ac3f3","vote(uint256,uint8,uint256,uint256,uint256,uint256[8])":"5a9c50d2"}}}}}