{
  "_format": "hh-sol-artifact-1",
  "contractName": "Groth16Verifier",
  "sourceName": "contracts/Verifier_Groth16.sol",
  "abi": [
    {
      "inputs": [
        {
          "internalType": "uint256[2]",
          "name": "_pA",
          "type": "uint256[2]"
        },
        {
          "internalType": "uint256[2][2]",
          "name": "_pB",
          "type": "uint256[2][2]"
        },
        {
          "internalType": "uint256[2]",
          "name": "_pC",
          "type": "uint256[2]"
        },
        {
          "internalType": "uint256[4]",
          "name": "_pubSignals",
          "type": "uint256[4]"
        }
      ],
      "name": "verifyProof",
      "outputs": [
        {
          "internalType": "bool",
          "name": "",
          "type": "bool"
        }
      ],
      "stateMutability": "view",
      "type": "function"
    }
  ],
  "bytecode": "0x608060405234801561001057600080fd5b50610718806100206000396000f3fe608060405234801561001057600080fd5b506004361061002b5760003560e01c80635fe8c13b14610030575b600080fd5b61004a60048036038101906100459190610643565b610060565b60405161005791906106c7565b60405180910390f35b600061057d565b7f30644e72e131a029b85045b68181585d2833e84879b9709143e1f593f00000018110610098576000805260206000f35b50565b600060405183815284602082015285604082015260408160608360076107d05a03fa9150816100ce576000805260206000f35b825160408201526020830151606082015260408360808360066107d05a03fa9150816100fe576000805260206000f35b505050505050565b600060808601600087017f0bc6d086283ead3ac75907b567874d97621bd166e9dfeeb82126238ab021413d81527f1cfcd72f4110bc8e6a933a4c75a184549c19b6580c15166ace2f703d534f792760208201526101a960008801357f17291a3366f8d12f08338bb92ca21ee3b2d8adc018de07e9d667eadfba1414197f06afb687303a13201d2a9279728ac61ea3bee0c151f6f869974e74b00ab103898461009b565b6101f960208801357f1bf2eb7213383c074c4d3adef1bd4c2f346a017b871cdfe6d654214441b6ef0a7f2e493762598f50d98922e87126def93945bc4628d08c6b39ca9f3ed780b01d858461009b565b61024960408801357f1a51b976c57423db66377c2fa7e4e8250613cc80f28f2eebbf113f1e04c41ddc7f1cce6f7990d297beadcb0a69fbf4730a3bf91944274b4aad7f9ab8c8ea5ef95c8461009b565b61029960608801357f277d03a0868a96547cf14aab31567e585e24c1b0bebe7280d663da514169572c7f032710f1a9803b6782d1e30baff0e9669fddf86c5896803e6325c04c34946abb8461009b565b833582527f30644e72e131a029b85045b68181585d97816a916871ca8d3c208c16d87cfd4760208501357f30644e72e131a029b85045b68181585d97816a916871ca8d3c208c16d87cfd4703066020830152843560408301526020850135606083015260408501356080830152606085013560a08301527f0c71477c825c7754f3452a29ec6a08df47f5758972cfddb093166ba599ee664c60c08301527f1c6e684ceedfe327446a1b2261b395f5b59b382ac84e6631891d9c27fd2f86e660e08301527f282b5b7691345ba3abd03cf64938e159d2f21702041709fc127e9593602cd5686101008301527f0a7162c02c70bdfc6ba6385ae1bd39fabdfd97d24257c3c52329367b0a203e166101208301527f11d806ced9bbdfd836400e380f835d04401423351e154b6bbdb3e96f36e9f6726101408301527f199aa7eaee1b57f4b40777f78e61ebb876bf1937f31c57d12d00fb95d32cc839610160830152600088015161018083015260206000018801516101a08301527f198e9393920d483a7260bfb731fb5d25f1aa493335a9e71297e485b7aef312c26101c08301527f1800deef121f1e76426a00665e5c4479674322d4f75edadd46debd5cd992f6ed6101e08301527f090689d0585ff075ec9e99ad690c3395bc4b313370b38ef355acdadcd122975b6102008301527f12c85ea5db8c6deb4aab71808dcb408fe3d1e7690c43d37b4ce6cc0166fa7daa610220830152853561024083015260208601356102608301527f2c4157385ba7e45f750d711901298e8c85091107515eb6928fb047618f986eb96102808301527f2d28d163f240e0ef10022c0cbc49d2d53cd7b45164a23bca69e8f27bb83755716102a08301527f27d83225ff118c67338ddc701c77f2a82f8f1d3c693d80d405a72141e31a96756102c08301527f272f5728a4655eaa48329294f289b2ce104924c8ccfaf4c87ea6ec20ab1182476102e08301526020826103008460086107d05a03fa82518116935050505095945050505050565b60405161038081016040526105956000840135610067565b6105a26020840135610067565b6105af6040840135610067565b6105bc6060840135610067565b6105c9818486888a610106565b8060005260206000f35b600080fd5b600080fd5b6000819050826020600202820111156105f9576105f86105d8565b5b92915050565b60008190508260406002028201111561061b5761061a6105d8565b5b92915050565b60008190508260206004028201111561063d5761063c6105d8565b5b92915050565b600080600080610180858703121561065e5761065d6105d3565b5b600061066c878288016105dd565b945050604061067d878288016105ff565b93505060c061068e878288016105dd565b9250506101006106a087828801610621565b91505092959194509250565b60008115159050919050565b6106c1816106ac565b82525050565b60006020820190506106dc60008301846106b8565b9291505056fea264697066735822122004f5921710869e34f50a1ce0bfb5bc968a20449e730411db659242fedae5609564736f6c63430008180033",
  "linkReferences": {},
  "deployedLinkReferences": {}
}