{
  "_format": "hh-sol-artifact-1",
  "contractName": "PrivacyVotingDAOv2",
  "sourceName": "contracts/PrivacyVotingDAOv2.sol",
  "abi": [
    {
      "inputs": [
        {
          "internalType": "contract SemaphoreVerifier",
          "name": "_verifier",
          "type": "address"
        },
        {
          "internalType": "uint256",
          "name": "_root",
          "type": "uint256"
        },
        {
          "internalType": "contract IERC20Votes",
          "name": "_govToken",
          "type": "address"
        }
      ],
      "stateMutability": "nonpayable",
      "type": "constructor"
    },
    {
      "inputs": [
        {
          "internalType": "address",
          "name": "owner",
          "type": "address"
        }
      ],
      "name": "OwnableInvalidOwner",
      "type": "error"
    },
    {
      "inputs": [
        {
          "internalType": "address",
          "name": "account",
          "type": "address"
        }
      ],
      "name": "OwnableUnauthorizedAccount",
      "type": "error"
    },
    {
      "anonymous": false,
      "inputs": [
        {
          "indexed": false,
          "internalType": "uint256",
          "name": "newRoot",
          "type": "uint256"
        }
      ],
      "name": "MemberRootUpdated",
      "type": "event"
    },
    {
      "anonymous": false,
      "inputs": [
        {
          "indexed": true,
          "internalType": "address",
          "name": "previousOwner",
          "type": "address"
        },
        {
          "indexed": true,
          "internalType": "address",
          "name": "newOwner",
          "type": "address"
        }
      ],
      "name": "OwnershipTransferred",
      "type": "event"
    },
    {
      "anonymous": false,
      "inputs": [
        {
          "indexed": true,
          "internalType": "uint256",
          "name": "id",
          "type": "uint256"
        },
        {
          "indexed": false,
          "internalType": "uint256",
          "name": "merkleRoot",
          "type": "uint256"
        },
        {
          "indexed": false,
          "internalType": "uint256",
          "name": "nullifierHash",
          "type": "uint256"
        },
        {
          "indexed": false,
          "internalType": "uint256",
          "name": "signalHash",
          "type": "uint256"
        }
      ],
      "name": "ProofVerified",
      "type": "event"
    },
    {
      "anonymous": false,
      "inputs": [
        {
          "indexed": true,
          "internalType": "uint256",
          "name": "id",
          "type": "uint256"
        },
        {
          "indexed": false,
          "internalType": "uint8",
          "name": "winner",
          "type": "uint8"
        }
      ],
      "name": "ProposalClosed",
      "type": "event"
    },
    {
      "anonymous": false,
      "inputs": [
        {
          "indexed": true,
          "internalType": "uint256",
          "name": "id",
          "type": "uint256"
        },
        {
          "indexed": false,
          "internalType": "enum CountingMode",
          "name": "mode",
          "type": "uint8"
        },
        {
          "indexed": false,
          "internalType": "string",
          "name": "title",
          "type": "string"
        },
        {
          "indexed": false,
          "internalType": "uint64",
          "name": "closes",
          "type": "uint64"
        }
      ],
      "name": "ProposalCreated",
      "type": "event"
    },
    {
      "anonymous": false,
      "inputs": [
        {
          "indexed": true,
          "internalType": "uint256",
          "name": "id",
          "type": "uint256"
        },
        {
          "indexed": false,
          "internalType": "uint8",
          "name": "option",
          "type": "uint8"
        },
        {
          "indexed": false,
          "internalType": "uint256",
          "name": "nullifierHash",
          "type": "uint256"
        },
        {
          "indexed": false,
          "internalType": "uint256",
          "name": "weight",
          "type": "uint256"
        }
      ],
      "name": "VoteCast",
      "type": "event"
    },
    {
      "inputs": [
        {
          "internalType": "uint256",
          "name": "id",
          "type": "uint256"
        }
      ],
      "name": "closeProposal",
      "outputs": [],
      "stateMutability": "nonpayable",
      "type": "function"
    },
    {
      "inputs": [
        {
          "internalType": "string",
          "name": "title",
          "type": "string"
        },
        {
          "internalType": "string",
          "name": "description",
          "type": "string"
        },
        {
          "internalType": "enum CountingMode",
          "name": "mode",
          "type": "uint8"
        },
        {
          "internalType": "string[]",
          "name": "options",
          "type": "string[]"
        },
        {
          "internalType": "uint32",
          "name": "duration",
          "type": "uint32"
        }
      ],
      "name": "createProposal",
      "outputs": [
        {
          "internalType": "uint256",
          "name": "id",
          "type": "uint256"
        }
      ],
      "stateMutability": "nonpayable",
      "type": "function"
    },
    {
      "inputs": [
        {
          "internalType": "uint256",
          "name": "id",
          "type": "uint256"
        }
      ],
      "name": "getProposal",
      "outputs": [
        {
          "internalType": "string",
          "name": "title",
          "type": "string"
        },
        {
          "internalType": "enum CountingMode",
          "name": "mode",
          "type": "uint8"
        },
        {
          "internalType": "bool",
          "name": "open",
          "type": "bool"
        },
        {
          "internalType": "uint64",
          "name": "closes",
          "type": "uint64"
        },
        {
          "internalType": "string[]",
          "name": "options",
          "type": "string[]"
        }
      ],
      "stateMutability": "view",
      "type": "function"
    },
    {
      "inputs": [],
      "name": "govToken",
      "outputs": [
        {
          "internalType": "contract IERC20Votes",
          "name": "",
          "type": "address"
        }
      ],
      "stateMutability": "view",
      "type": "function"
    },
    {
      "inputs": [],
      "name": "memberMerkleRoot",
      "outputs": [
        {
          "internalType": "uint256",
          "name": "",
          "type": "uint256"
        }
      ],
      "stateMutability": "view",
      "type": "function"
    },
    {
      "inputs": [],
      "name": "owner",
      "outputs": [
        {
          "internalType": "address",
          "name": "",
          "type": "address"
        }
      ],
      "stateMutability": "view",
      "type": "function"
    },
    {
      "inputs": [],
      "name": "proposalCount",
      "outputs": [
        {
          "internalType": "uint256",
          "name": "",
          "type": "uint256"
        }
      ],
      "stateMutability": "view",
      "type": "function"
    },
    {
      "inputs": [],
      "name": "renounceOwnership",
      "outputs": [],
      "stateMutability": "nonpayable",
      "type": "function"
    },
    {
      "inputs": [
        {
          "internalType": "uint256",
          "name": "id",
          "type": "uint256"
        },
        {
          "internalType": "uint16",
          "name": "start",
          "type": "uint16"
        },
        {
          "internalType": "uint16",
          "name": "n",
          "type": "uint16"
        }
      ],
      "name": "tallies",
      "outputs": [
        {
          "internalType": "uint256[]",
          "name": "out",
          "type": "uint256[]"
        }
      ],
      "stateMutability": "view",
      "type": "function"
    },
    {
      "inputs": [
        {
          "internalType": "address",
          "name": "newOwner",
          "type": "address"
        }
      ],
      "name": "transferOwnership",
      "outputs": [],
      "stateMutability": "nonpayable",
      "type": "function"
    },
    {
      "inputs": [
        {
          "internalType": "uint256",
          "name": "newRoot",
          "type": "uint256"
        }
      ],
      "name": "updateMemberRoot",
      "outputs": [],
      "stateMutability": "nonpayable",
      "type": "function"
    },
    {
      "inputs": [],
      "name": "verifier",
      "outputs": [
        {
          "internalType": "contract SemaphoreVerifier",
          "name": "",
          "type": "address"
        }
      ],
      "stateMutability": "view",
      "type": "function"
    },
    {
      "inputs": [
        {
          "internalType": "uint256",
          "name": "id",
          "type": "uint256"
        },
        {
          "internalType": "uint8",
          "name": "option",
          "type": "uint8"
        },
        {
          "internalType": "uint256",
          "name": "signalHash",
          "type": "uint256"
        },
        {
          "internalType": "uint256",
          "name": "nullifierHash",
          "type": "uint256"
        },
        {
          "internalType": "uint256",
          "name": "merkleRoot",
          "type": "uint256"
        },
        {
          "internalType": "uint256[8]",
          "name": "proof",
          "type": "uint256[8]"
        }
      ],
      "name": "vote",
      "outputs": [],
      "stateMutability": "nonpayable",
      "type": "function"
    }
  ],
  "bytecode": "0x60c06040523480156200001157600080fd5b5060405162002ee338038062002ee38339818101604052810190620000379190620002f9565b33600073ffffffffffffffffffffffffffffffffffffffff168173ffffffffffffffffffffffffffffffffffffffff1603620000ad5760006040517f1e4fbdf7000000000000000000000000000000000000000000000000000000008152600401620000a4919062000366565b60405180910390fd5b620000be816200013760201b60201c565b508273ffffffffffffffffffffffffffffffffffffffff1660808173ffffffffffffffffffffffffffffffffffffffff1681525050816001819055508073ffffffffffffffffffffffffffffffffffffffff1660a08173ffffffffffffffffffffffffffffffffffffffff168152505050505062000383565b60008060009054906101000a900473ffffffffffffffffffffffffffffffffffffffff169050816000806101000a81548173ffffffffffffffffffffffffffffffffffffffff021916908373ffffffffffffffffffffffffffffffffffffffff1602179055508173ffffffffffffffffffffffffffffffffffffffff168173ffffffffffffffffffffffffffffffffffffffff167f8be0079c531659141344cd1fd0a4f28419497f9722a3daafe3b4186f6b6457e060405160405180910390a35050565b600080fd5b600073ffffffffffffffffffffffffffffffffffffffff82169050919050565b60006200022d8262000200565b9050919050565b6000620002418262000220565b9050919050565b620002538162000234565b81146200025f57600080fd5b50565b600081519050620002738162000248565b92915050565b6000819050919050565b6200028e8162000279565b81146200029a57600080fd5b50565b600081519050620002ae8162000283565b92915050565b6000620002c18262000220565b9050919050565b620002d381620002b4565b8114620002df57600080fd5b50565b600081519050620002f381620002c8565b92915050565b600080600060608486031215620003155762000314620001fb565b5b6000620003258682870162000262565b935050602062000338868287016200029d565b92505060406200034b86828701620002e2565b9150509250925092565b620003608162000220565b82525050565b60006020820190506200037d600083018462000355565b92915050565b60805160a051612b25620003be6000396000818161040f01528181610c650152610ca601526000818161088c0152610ac00152612b256000f3fe608060405234801561001057600080fd5b50600436106100cf5760003560e01c80635a9c50d21161008c5780638da5cb5b116100665780638da5cb5b146101ec578063c7f758a81461020a578063da35c6641461023e578063f2fde38b1461025c576100cf565b80635a9c50d2146101a8578063715018a6146101c457806385f0ad84146101ce576100cf565b80630386a016146100d457806305268cff146100f05780630a898f491461010e578063112f69911461013e5780631809beba1461015a5780632b7ac3f31461018a575b600080fd5b6100ee60048036038101906100e991906114e5565b610278565b005b6100f861040d565b6040516101059190611591565b60405180910390f35b610128600480360381019061012391906116c8565b610431565b60405161013591906117b3565b60405180910390f35b610158600480360381019061015391906114e5565b610632565b005b610174600480360381019061016f9190611808565b61067b565b6040516101819190611919565b60405180910390f35b61019261088a565b60405161019f919061195c565b60405180910390f35b6101c260048036038101906101bd91906119d2565b6108ae565b005b6101cc610e0c565b005b6101d6610e20565b6040516101e391906117b3565b60405180910390f35b6101f4610e26565b6040516102019190611a81565b60405180910390f35b610224600480360381019061021f91906114e5565b610e4f565b604051610235959493929190611ced565b60405180910390f35b610246611055565b60405161025391906117b3565b60405180910390f35b61027660048036038101906102719190611d7a565b61105b565b005b60006003600083815260200190815260200160002090508060060160089054906101000a900460ff16156102e1576040517f08c379a00000000000000000000000000000000000000000000000000000000081526004016102d890611df3565b60405180910390fd5b8060060160009054906101000a900467ffffffffffffffff1667ffffffffffffffff16421015610346576040517f08c379a000000000000000000000000000000000000000000000000000000000815260040161033d90611e5f565b60405180910390fd5b60018160060160086101000a81548160ff021916908315150217905550600060ff90506000805b83600301805490508160ff1610156103ce5760008460040160008360ff168152602001908152602001600020549050828111156103af578092508193506103bc565b8281036103bb5760ff93505b5b50806103c790611eae565b905061036d565b50837f72b5ce25e9823e74d98ed37f5ce167c0ed7e8728dd1d45326ee475b9ac9ba427836040516103ff9190611ee6565b60405180910390a250505050565b7f000000000000000000000000000000000000000000000000000000000000000081565b600061043b6110e1565b6002848490501015610482576040517f08c379a000000000000000000000000000000000000000000000000000000000815260040161047990611f4d565b60405180910390fd5b60026000815461049190611f6d565b9190508190559050600060036000838152602001908152602001600020905089898260000191826104c39291906121f1565b5087878260010191826104d79291906121f1565b50858160020160006101000a81548160ff021916908360018111156104ff576104fe611b2c565b5b02179055508060030160006105149190611403565b60005b858590508110156105925781600301868683818110610539576105386122c1565b5b905060200281019061054b91906122ff565b909180600181540180825580915050600190039060005260206000200160009091929091929091929091925091826105849291906121f1565b508080600101915050610517565b508263ffffffff16426105a59190612362565b8160060160006101000a81548167ffffffffffffffff021916908367ffffffffffffffff160217905550817f6f20a81eb0aacaf8ee50c24f6af2659e67742060a556dbfe8b5f30a833371daa878c8c8560060160009054906101000a900467ffffffffffffffff1660405161061d94939291906123da565b60405180910390a25098975050505050505050565b61063a6110e1565b806001819055507fa983c43a31d5106526385dbcecc40fb9547eefb4b0f7d2e43b5fc71448dc8c098160405161067091906117b3565b60405180910390a150565b606060006003600086815260200190815260200160002090506000816003018054905090508061ffff168561ffff16106106ea576040517f08c379a00000000000000000000000000000000000000000000000000000000081526004016106e190612466565b60405180910390fd5b6000808561ffff16148061071057508161ffff16858761070a9190612486565b61ffff16115b8061072d57508561ffff1685876107279190612486565b61ffff16105b61074257848661073d9190612486565b610744565b815b90508061ffff168661ffff1610158015610762575060008261ffff16115b156107bb57600067ffffffffffffffff81111561078257610781611fc0565b5b6040519080825280602002602001820160405280156107b05781602001602082028036833780820191505090505b509350505050610883565b85816107c791906124bc565b61ffff1667ffffffffffffffff8111156107e4576107e3611fc0565b5b6040519080825280602002602001820160405280156108125781602001602082028036833780820191505090505b50935060008690505b8161ffff168161ffff16101561087e578360040160008261ffff1681526020019081526020016000205485888361085291906124bc565b61ffff1681518110610867576108666122c1565b5b60200260200101818152505080600101905061081b565b505050505b9392505050565b7f000000000000000000000000000000000000000000000000000000000000000081565b60006003600088815260200190815260200160002090508060060160009054906101000a900467ffffffffffffffff1667ffffffffffffffff164210610929576040517f08c379a00000000000000000000000000000000000000000000000000000000081526004016109209061253e565b60405180910390fd5b80600301805490508660ff1610610975576040517f08c379a000000000000000000000000000000000000000000000000000000000815260040161096c906125aa565b60405180910390fd5b80600501600085815260200190815260200160002060009054906101000a900460ff16156109d8576040517f08c379a00000000000000000000000000000000000000000000000000000000081526004016109cf90612616565b60405180910390fd5b6001548314610a1c576040517f08c379a0000000000000000000000000000000000000000000000000000000008152600401610a1390612682565b60405180910390fd5b6000610a2a8760ff16611168565b604051602001610a3a919061272a565b6040516020818303038152906040528051906020012090508060001c8614610a97576040517f08c379a0000000000000000000000000000000000000000000000000000000008152600401610a8e90612798565b60405180910390fd5b600060405180608001604052808681526020018781526020018881526020018a815250905060007f000000000000000000000000000000000000000000000000000000000000000073ffffffffffffffffffffffffffffffffffffffff16632357251186846040518363ffffffff1660e01b8152600401610b19929190612856565b602060405180830381865afa158015610b36573d6000803e3d6000fd5b505050506040513d601f19601f82011682018060405250810190610b5a91906128ad565b905080610b9c576040517f08c379a0000000000000000000000000000000000000000000000000000000008152600401610b9390612926565b60405180910390fd5b897f80e303d0aad176107b4ce4f8c65dc7f16df914f319bad37d18f35c02f0a597db87898b604051610bd093929190612946565b60405180910390a2600184600501600089815260200190815260200160002060006101000a81548160ff021916908315150217905550600060019050600180811115610c1f57610c1e611b2c565b5b8560020160009054906101000a900460ff166001811115610c4357610c42611b2c565b5b148015610c9d5750600073ffffffffffffffffffffffffffffffffffffffff167f000000000000000000000000000000000000000000000000000000000000000073ffffffffffffffffffffffffffffffffffffffff1614155b15610d4d5760007f000000000000000000000000000000000000000000000000000000000000000073ffffffffffffffffffffffffffffffffffffffff16639ab24eb0336040518263ffffffff1660e01b8152600401610cfd9190611a81565b602060405180830381865afa158015610d1a573d6000803e3d6000fd5b505050506040513d601f19601f82011682018060405250810190610d3e9190612992565b9050610d49816112c8565b9150505b808560040160008c60ff168152602001908152602001600020600082825401925050819055508a7f56bd80d53a258d2249bab33821ad5288cc0c2b3d17b5ce7c41c7d67bbcc2982a8b8a84604051610da7939291906129bf565b60405180910390a28460060160009054906101000a900467ffffffffffffffff1667ffffffffffffffff164210158015610df057508460060160089054906101000a900460ff16155b15610dff57610dfe8b610278565b5b5050505050505050505050565b610e146110e1565b610e1e6000611337565b565b60015481565b60008060009054906101000a900473ffffffffffffffffffffffffffffffffffffffff16905090565b6060600080600060606000600360008881526020019081526020016000209050806000018160020160009054906101000a900460ff168260060160089054906101000a900460ff16158015610ec557508260060160009054906101000a900467ffffffffffffffff1667ffffffffffffffff1642105b8360060160009054906101000a900467ffffffffffffffff1684600301848054610eee9061201e565b80601f0160208091040260200160405190810160405280929190818152602001828054610f1a9061201e565b8015610f675780601f10610f3c57610100808354040283529160200191610f67565b820191906000526020600020905b815481529060010190602001808311610f4a57829003601f168201915b5050505050945080805480602002602001604051908101604052809291908181526020016000905b8282101561103b578382906000526020600020018054610fae9061201e565b80601f0160208091040260200160405190810160405280929190818152602001828054610fda9061201e565b80156110275780601f10610ffc57610100808354040283529160200191611027565b820191906000526020600020905b81548152906001019060200180831161100a57829003601f168201915b505050505081526020019060010190610f8f565b505050509050955095509550955095505091939590929450565b60025481565b6110636110e1565b600073ffffffffffffffffffffffffffffffffffffffff168173ffffffffffffffffffffffffffffffffffffffff16036110d55760006040517f1e4fbdf70000000000000000000000000000000000000000000000000000000081526004016110cc9190611a81565b60405180910390fd5b6110de81611337565b50565b6110e96113fb565b73ffffffffffffffffffffffffffffffffffffffff16611107610e26565b73ffffffffffffffffffffffffffffffffffffffff16146111665761112a6113fb565b6040517f118cdaa700000000000000000000000000000000000000000000000000000000815260040161115d9190611a81565b60405180910390fd5b565b6060600082036111af576040518060400160405280600181526020017f300000000000000000000000000000000000000000000000000000000000000081525090506112c3565b600082905060005b600082146111e15780806111ca90611f6d565b915050600a826111da9190612a25565b91506111b7565b60008167ffffffffffffffff8111156111fd576111fc611fc0565b5b6040519080825280601f01601f19166020018201604052801561122f5781602001600182028036833780820191505090505b5090505b600085146112bc576001826112489190612a56565b9150600a856112579190612a8a565b60306112639190612abb565b60f81b818381518110611279576112786122c1565b5b60200101907effffffffffffffffffffffffffffffffffffffffffffffffffffffffffffff1916908160001a905350600a856112b59190612a25565b9450611233565b8093505050505b919050565b60008082036112da5760009050611332565b600060026001846112eb9190612abb565b6112f59190612a25565b90508291505b818110156113305780915060028182856113159190612a25565b61131f9190612abb565b6113299190612a25565b90506112fb565b505b919050565b60008060009054906101000a900473ffffffffffffffffffffffffffffffffffffffff169050816000806101000a81548173ffffffffffffffffffffffffffffffffffffffff021916908373ffffffffffffffffffffffffffffffffffffffff1602179055508173ffffffffffffffffffffffffffffffffffffffff168173ffffffffffffffffffffffffffffffffffffffff167f8be0079c531659141344cd1fd0a4f28419497f9722a3daafe3b4186f6b6457e060405160405180910390a35050565b600033905090565b50805460008255906000526020600020908101906114219190611424565b50565b5b80821115611444576000818161143b9190611448565b50600101611425565b5090565b5080546114549061201e565b6000825580601f106114665750611485565b601f0160209004906000526020600020908101906114849190611488565b5b50565b5b808211156114a1576000816000905550600101611489565b5090565b600080fd5b600080fd5b6000819050919050565b6114c2816114af565b81146114cd57600080fd5b50565b6000813590506114df816114b9565b92915050565b6000602082840312156114fb576114fa6114a5565b5b6000611509848285016114d0565b91505092915050565b600073ffffffffffffffffffffffffffffffffffffffff82169050919050565b6000819050919050565b600061155761155261154d84611512565b611532565b611512565b9050919050565b60006115698261153c565b9050919050565b600061157b8261155e565b9050919050565b61158b81611570565b82525050565b60006020820190506115a66000830184611582565b92915050565b600080fd5b600080fd5b600080fd5b60008083601f8401126115d1576115d06115ac565b5b8235905067ffffffffffffffff8111156115ee576115ed6115b1565b5b60208301915083600182028301111561160a576116096115b6565b5b9250929050565b6002811061161e57600080fd5b50565b60008135905061163081611611565b92915050565b60008083601f84011261164c5761164b6115ac565b5b8235905067ffffffffffffffff811115611669576116686115b1565b5b602083019150836020820283011115611685576116846115b6565b5b9250929050565b600063ffffffff82169050919050565b6116a58161168c565b81146116b057600080fd5b50565b6000813590506116c28161169c565b92915050565b60008060008060008060008060a0898b0312156116e8576116e76114a5565b5b600089013567ffffffffffffffff811115611706576117056114aa565b5b6117128b828c016115bb565b9850985050602089013567ffffffffffffffff811115611735576117346114aa565b5b6117418b828c016115bb565b965096505060406117548b828c01611621565b945050606089013567ffffffffffffffff811115611775576117746114aa565b5b6117818b828c01611636565b935093505060806117948b828c016116b3565b9150509295985092959890939650565b6117ad816114af565b82525050565b60006020820190506117c860008301846117a4565b92915050565b600061ffff82169050919050565b6117e5816117ce565b81146117f057600080fd5b50565b600081359050611802816117dc565b92915050565b600080600060608486031215611821576118206114a5565b5b600061182f868287016114d0565b9350506020611840868287016117f3565b9250506040611851868287016117f3565b9150509250925092565b600081519050919050565b600082825260208201905092915050565b6000819050602082019050919050565b611890816114af565b82525050565b60006118a28383611887565b60208301905092915050565b6000602082019050919050565b60006118c68261185b565b6118d08185611866565b93506118db83611877565b8060005b8381101561190c5781516118f38882611896565b97506118fe836118ae565b9250506001810190506118df565b5085935050505092915050565b6000602082019050818103600083015261193381846118bb565b905092915050565b60006119468261155e565b9050919050565b6119568161193b565b82525050565b6000602082019050611971600083018461194d565b92915050565b600060ff82169050919050565b61198d81611977565b811461199857600080fd5b50565b6000813590506119aa81611984565b92915050565b6000819050826020600802820111156119cc576119cb6115b6565b5b92915050565b6000806000806000806101a087890312156119f0576119ef6114a5565b5b60006119fe89828a016114d0565b9650506020611a0f89828a0161199b565b9550506040611a2089828a016114d0565b9450506060611a3189828a016114d0565b9350506080611a4289828a016114d0565b92505060a0611a5389828a016119b0565b9150509295509295509295565b6000611a6b82611512565b9050919050565b611a7b81611a60565b82525050565b6000602082019050611a966000830184611a72565b92915050565b600081519050919050565b600082825260208201905092915050565b60005b83811015611ad6578082015181840152602081019050611abb565b60008484015250505050565b6000601f19601f8301169050919050565b6000611afe82611a9c565b611b088185611aa7565b9350611b18818560208601611ab8565b611b2181611ae2565b840191505092915050565b7f4e487b7100000000000000000000000000000000000000000000000000000000600052602160045260246000fd5b60028110611b6c57611b6b611b2c565b5b50565b6000819050611b7d82611b5b565b919050565b6000611b8d82611b6f565b9050919050565b611b9d81611b82565b82525050565b60008115159050919050565b611bb881611ba3565b82525050565b600067ffffffffffffffff82169050919050565b611bdb81611bbe565b82525050565b600081519050919050565b600082825260208201905092915050565b6000819050602082019050919050565b600082825260208201905092915050565b6000611c2982611a9c565b611c338185611c0d565b9350611c43818560208601611ab8565b611c4c81611ae2565b840191505092915050565b6000611c638383611c1e565b905092915050565b6000602082019050919050565b6000611c8382611be1565b611c8d8185611bec565b935083602082028501611c9f85611bfd565b8060005b85811015611cdb5784840389528151611cbc8582611c57565b9450611cc783611c6b565b925060208a01995050600181019050611ca3565b50829750879550505050505092915050565b600060a0820190508181036000830152611d078188611af3565b9050611d166020830187611b94565b611d236040830186611baf565b611d306060830185611bd2565b8181036080830152611d428184611c78565b90509695505050505050565b611d5781611a60565b8114611d6257600080fd5b50565b600081359050611d7481611d4e565b92915050565b600060208284031215611d9057611d8f6114a5565b5b6000611d9e84828501611d65565b91505092915050565b7f616c726561647920636c6f736564000000000000000000000000000000000000600082015250565b6000611ddd600e83611aa7565b9150611de882611da7565b602082019050919050565b60006020820190508181036000830152611e0c81611dd0565b9050919050565b7f6e6f742065787069726564000000000000000000000000000000000000000000600082015250565b6000611e49600b83611aa7565b9150611e5482611e13565b602082019050919050565b60006020820190508181036000830152611e7881611e3c565b9050919050565b7f4e487b7100000000000000000000000000000000000000000000000000000000600052601160045260246000fd5b6000611eb982611977565b915060ff8203611ecc57611ecb611e7f565b5b600182019050919050565b611ee081611977565b82525050565b6000602082019050611efb6000830184611ed7565b92915050565b7f6e65656420322b206f7074730000000000000000000000000000000000000000600082015250565b6000611f37600c83611aa7565b9150611f4282611f01565b602082019050919050565b60006020820190508181036000830152611f6681611f2a565b9050919050565b6000611f78826114af565b91507fffffffffffffffffffffffffffffffffffffffffffffffffffffffffffffffff8203611faa57611fa9611e7f565b5b600182019050919050565b600082905092915050565b7f4e487b7100000000000000000000000000000000000000000000000000000000600052604160045260246000fd5b7f4e487b7100000000000000000000000000000000000000000000000000000000600052602260045260246000fd5b6000600282049050600182168061203657607f821691505b60208210810361204957612048611fef565b5b50919050565b60008190508160005260206000209050919050565b60006020601f8301049050919050565b600082821b905092915050565b6000600883026120b17fffffffffffffffffffffffffffffffffffffffffffffffffffffffffffffffff82612074565b6120bb8683612074565b95508019841693508086168417925050509392505050565b60006120ee6120e96120e4846114af565b611532565b6114af565b9050919050565b6000819050919050565b612108836120d3565b61211c612114826120f5565b848454612081565b825550505050565b600090565b612131612124565b61213c8184846120ff565b505050565b5b8181101561216057612155600082612129565b600181019050612142565b5050565b601f8211156121a5576121768161204f565b61217f84612064565b8101602085101561218e578190505b6121a261219a85612064565b830182612141565b50505b505050565b600082821c905092915050565b60006121c8600019846008026121aa565b1980831691505092915050565b60006121e183836121b7565b9150826002028217905092915050565b6121fb8383611fb5565b67ffffffffffffffff81111561221457612213611fc0565b5b61221e825461201e565b612229828285612164565b6000601f8311600181146122585760008415612246578287013590505b61225085826121d5565b8655506122b8565b601f1984166122668661204f565b60005b8281101561228e57848901358255600182019150602085019450602081019050612269565b868310156122ab57848901356122a7601f8916826121b7565b8355505b6001600288020188555050505b50505050505050565b7f4e487b7100000000000000000000000000000000000000000000000000000000600052603260045260246000fd5b600080fd5b600080fd5b600080fd5b6000808335600160200384360303811261231c5761231b6122f0565b5b80840192508235915067ffffffffffffffff82111561233e5761233d6122f5565b5b60208301925060018202360383131561235a576123596122fa565b5b509250929050565b600061236d82611bbe565b915061237883611bbe565b9250828201905067ffffffffffffffff81111561239857612397611e7f565b5b92915050565b82818337600083830152505050565b60006123b98385611aa7565b93506123c683858461239e565b6123cf83611ae2565b840190509392505050565b60006060820190506123ef6000830187611b94565b81810360208301526124028185876123ad565b90506124116040830184611bd2565b95945050505050565b7f6f6f620000000000000000000000000000000000000000000000000000000000600082015250565b6000612450600383611aa7565b915061245b8261241a565b602082019050919050565b6000602082019050818103600083015261247f81612443565b9050919050565b6000612491826117ce565b915061249c836117ce565b9250828201905061ffff8111156124b6576124b5611e7f565b5b92915050565b60006124c7826117ce565b91506124d2836117ce565b9250828203905061ffff8111156124ec576124eb611e7f565b5b92915050565b7f766f74696e6720697320636c6f73656400000000000000000000000000000000600082015250565b6000612528601083611aa7565b9150612533826124f2565b602082019050919050565b600060208201905081810360008301526125578161251b565b9050919050565b7f696e76616c6964206f7074696f6e000000000000000000000000000000000000600082015250565b6000612594600e83611aa7565b915061259f8261255e565b602082019050919050565b600060208201905081810360008301526125c381612587565b9050919050565b7f766f746520616c72656164792063617374000000000000000000000000000000600082015250565b6000612600601183611aa7565b915061260b826125ca565b602082019050919050565b6000602082019050818103600083015261262f816125f3565b9050919050565b7f696e76616c6964206d65726b6c6520726f6f7400000000000000000000000000600082015250565b600061266c601383611aa7565b915061267782612636565b602082019050919050565b6000602082019050818103600083015261269b8161265f565b9050919050565b600081905092915050565b7f564f54455f000000000000000000000000000000000000000000000000000000600082015250565b60006126e36005836126a2565b91506126ee826126ad565b600582019050919050565b600061270482611a9c565b61270e81856126a2565b935061271e818560208601611ab8565b80840191505092915050565b6000612735826126d6565b915061274182846126f9565b915081905092915050565b7f7369676e616c2d6f7074696f6e206d69736d6174636800000000000000000000600082015250565b6000612782601683611aa7565b915061278d8261274c565b602082019050919050565b600060208201905081810360008301526127b181612775565b9050919050565b82818337505050565b6127ce61010083836127b8565b5050565b600060049050919050565b600081905092915050565b6000819050919050565b6000602082019050919050565b612808816127d2565b61281281846127dd565b925061281d826127e8565b8060005b8381101561284e5781516128358782611896565b9650612840836127f2565b925050600181019050612821565b505050505050565b60006101808201905061286c60008301856127c1565b61287a6101008301846127ff565b9392505050565b61288a81611ba3565b811461289557600080fd5b50565b6000815190506128a781612881565b92915050565b6000602082840312156128c3576128c26114a5565b5b60006128d184828501612898565b91505092915050565b7f696e76616c69642070726f6f6600000000000000000000000000000000000000600082015250565b6000612910600d83611aa7565b915061291b826128da565b602082019050919050565b6000602082019050818103600083015261293f81612903565b9050919050565b600060608201905061295b60008301866117a4565b61296860208301856117a4565b61297560408301846117a4565b949350505050565b60008151905061298c816114b9565b92915050565b6000602082840312156129a8576129a76114a5565b5b60006129b68482850161297d565b91505092915050565b60006060820190506129d46000830186611ed7565b6129e160208301856117a4565b6129ee60408301846117a4565b949350505050565b7f4e487b7100000000000000000000000000000000000000000000000000000000600052601260045260246000fd5b6000612a30826114af565b9150612a3b836114af565b925082612a4b57612a4a6129f6565b5b828204905092915050565b6000612a61826114af565b9150612a6c836114af565b9250828203905081811115612a8457612a83611e7f565b5b92915050565b6000612a95826114af565b9150612aa0836114af565b925082612ab057612aaf6129f6565b5b828206905092915050565b6000612ac6826114af565b9150612ad1836114af565b9250828201905080821115612ae957612ae8611e7f565b5b9291505056fea2646970667358221220c7a9e3ae23efd44cbda08137fc76e0017c24151b956d30e446ace3fb51c0391664736f6c63430008180033",
  "linkReferences": {},
  "deployedLinkReferences": {}
}