{
  "_format": "hh-sol-artifact-1",
  "contractName": "MockGovToken",
  "sourceName": "contracts/MockGOVToken.sol",
  "abi": [
    {
      "inputs": [
        {
          "internalType": "address",
          "name": "",
          "type": "address"
        }
      ],
      "name": "getVotes",
      "outputs": [
        {
          "internalType": "uint256",
          "name": "",
          "type": "uint256"
        }
      ],
      "stateMutability": "pure",
      "type": "function"
    }
  ],
  "bytecode": "0x608060405234801561001057600080fd5b50610165806100206000396000f3fe608060405234801561001057600080fd5b506004361061002b5760003560e01c80639ab24eb014610030575b600080fd5b61004a600480360381019061004591906100ce565b610060565b6040516100579190610114565b60405180910390f35b600060649050919050565b600080fd5b600073ffffffffffffffffffffffffffffffffffffffff82169050919050565b600061009b82610070565b9050919050565b6100ab81610090565b81146100b657600080fd5b50565b6000813590506100c8816100a2565b92915050565b6000602082840312156100e4576100e361006b565b5b60006100f2848285016100b9565b91505092915050565b6000819050919050565b61010e816100fb565b82525050565b60006020820190506101296000830184610105565b9291505056fea264697066735822122036c7ff44864d4f5bb92df2b7099d5104dde8feee8964155d365df72eb69edca264736f6c63430008180033",
  "linkReferences": {},
  "deployedLinkReferences": {}
}